:100000000C94FE000C9426010C9426010C942601FD
:100010000C9426010C9426010C941B130C942601BD
:100020000C9426010C9426010C9426010C942601B4
:100030000C9426010C9426010C9426010C942601A4
:100040000C943E0A0C9426010C94AE0A0C94880A77
:100050000C9426010C9426010C9426010C94260184
:100060000C94E00A0C942601446973706C61792049
:100070006D6F64653A20004155544F004D414E5517
:10008000414C004D6F6465206368616E6765642054
:10009000746F3A20004175746F20616374756174E8
:1000A0006F7220636F6E74726F6C3A2041435449D3
:1000B0005645004175746F206163747561746F7289
:1000C00020636F6E74726F6C3A20504155534544F3
:1000D00000202520202D3E204F4B00202520202DC4
:1000E0003E204C4F572C2048756D69646974792007
:1000F0004C4544204F4E00204320202D3E204F4BA6
:1001000000204320202D3E20484F542C2054656D64
:1001100070204C4544204F4E0048756D69646974E9
:10012000793A200020202D3E204F4B0020202D3EEC
:10013000204452592C20536F696C204C4544204F69
:100140004E0054656D70657261747572653A200079
:100150004155544F004D414E55414C00536F696C11
:10016000204D6F697374757265205261773A200073
:100170004D6F64653A20003D3D3D3D3D3D3D3D3D7B
:100180003D20504C414E5420434152452053595339
:1001900054454D203D3D3D3D3D3D3D3D3D3D0000F7
:1001A000000000240027002A00000000002500288D
:1001B000002B000000000023002600290004040496
:1001C0000404040404020202020202030303030300
:1001D00003010204081020408001020408102001DD
:1001E00002040810200000000800020100000304BF
:1001F000070000000000000000001E1311241FBEB5
:10020000CFEFD8E0DEBFCDBF11E0A0E0B1E0EEEB74
:10021000FBE202C005900D92A43EB107D9F723E09E
:10022000A4EEB1E001C01D92A43DB207E1F710E0D9
:10023000CEEFD0E004C02197FE010E94D015CD3F43
:10024000D107C9F70E9466130C94DD150C940000C9
:10025000833081F028F4813099F08230A9F008953C
:100260008730A9F08830C9F08430B1F480918000E3
:100270008F7D03C0809180008F77809380000895E8
:1002800084B58F7784BD089584B58F7DFBCF809131
:10029000B0008F778093B00008958091B0008F7D7B
:1002A000F9CFCF93DF93282F30E0F901EB51FE4FC8
:1002B0008491F901EF52FE4FD491F901E354FE4FBE
:1002C000C491CC23A1F081110E942801EC2FF0E011
:1002D000EE0FFF1FED54FE4FA591B491EC91ED236D
:1002E00081E090E009F480E0DF91CF91089580E013
:1002F00090E0FACF1F93CF93DF93282F30E0F901DE
:10030000EB51FE4F8491F901EF52FE4FD491F90168
:10031000E354FE4FC491CC23A9F0162F81110E9403
:100320002801EC2FF0E0EE0FFF1FE755FE4FA591DF
:10033000B4918FB7F894EC91111108C0D095DE23D9
:10034000DC938FBFDF91CF911F910895DE2BF8CF03
:10035000CF93DF9390E0FC01EF52FE4F2491835442
:100360009E4FFC0184918823D1F090E0880F991F63
:10037000FC01E156FE4FA591B491FC01E755FE4FFB
:10038000C591D491623071F49FB7F8943C91822F5B
:10039000809583238C93E8812E2B28839FBFDF9148
:1003A000CF9108958FB7F894EC912E2B2C938FBF9B
:1003B000F6CF8E50806480937C0080917A008064B8
:1003C00080937A0080917A0086FDFCCF809178003E
:1003D0009091790008953FB7F8948091BC02909174
:1003E000BD02A091BE02B091BF0226B5A89B05C078
:1003F0002F3F19F00196A11DB11D3FBFBA2FA92FA4
:10040000982F8827BC01CD01620F711D811D911DA0
:1004100042E0660F771F881F991F4A95D1F708950C
:100420008F929F92AF92BF92CF92DF92EF92FF9204
:100430004B015C010E94EB016B017C010E94EB010E
:100440006C197D098E099F09683E734081059105ED
:10045000A8F321E0821A9108A108B10888EEC80E1D
:1004600083E0D81EE11CF11C81149104A104B104A5
:1004700029F7FF90EF90DF90CF90BF90AF909F90C3
:100480008F900895AF92BF92CF92DF92EF92FF923A
:100490000F931F93CF93DF936C017B018B01040FAC
:1004A000151FEB015E01AE18BF08C017D10759F048
:1004B0006991D601ED91FC910190F081E02DC6018A
:1004C0000995892B79F7C501DF91CF911F910F9184
:1004D000FF90EF90DF90CF90BF90AF900895FC0118
:1004E000538D448D252F30E0842F90E0821B930B99
:1004F000541710F0CF96089501970895FC01918D3F
:10050000828D981761F0A28DAE0FBF2FB11D5D9641
:100510008C91928D9F5F9F73928F90E008958FEFE3
:100520009FEF0895FC01918D828D981731F0828D97
:10053000E80FF11D858D90E008958FEF9FEF0895EE
:10054000FC01918D228D892F90E0805C9F4F821B52
:1005500091098F73992708958BE193E00E94A0027F
:1005600021E0892B09F420E0822F08950E94AC023B
:1005700081110C940000089580E090E0892B11F027
:100580000C94B6020895FC01A48DA80FB92FB11DDB
:10059000A35ABF4F2C91848D90E001968F739927B9
:1005A000848FA689B7892C93A089B1898C91837097
:1005B00080648C93938D848D981306C00288F38990
:1005C000E02D80818F7D80830895EF92FF920F93BD
:1005D0001F93CF93DF93EC0181E0888F9B8D8C8DEF
:1005E00098131AC0E889F989808185FF15C09FB7E3
:1005F000F894EE89FF896083E889F98980818370A6
:10060000806480839FBF81E090E0DF91CF911F9154
:100610000F91FF90EF900895F62E0B8D10E00F5F75
:100620001F4F0F731127E02E8C8D8E110CC00FB64B
:1006300007FCFACFE889F989808185FFF5CFCE01E3
:100640000E94C302F1CFEB8DEC0FFD2FF11DE35A99
:10065000FF4FF0829FB7F8940B8FEA89FB89808166
:100660008062CFCF0F931F93CF93DF938C01D0E0A5
:10067000C0E0F801EC0FFD1F6491662341F08BE1AF
:1006800093E00E94E502892B11F02196F2CFCE0172
:10069000DF91CF911F910F910895CF93DF93EC01DC
:1006A000888D8823B9F0AA89BB89E889F9898C915A
:1006B00085FD03C0808186FD0DC00FB607FCF7CF16
:1006C0008C9185FFF2CF808185FFEDCFCE010E9416
:1006D000C302E9CFDF91CF910895089520913C02A4
:1006E000260F3327331F21323105ECF42091870286
:1006F000FC0190E080E0243069F082E00895A09150
:100700003C022191AC01465E5D4FA40FB52FB11D97
:100710002C930196861798F380913C02680F6093A2
:100720003C0280E0089581E008951092870281E004
:10073000809386021092610261E082E10E947A0158
:1007400061E083E10E947A01E9EBF0E080818E7F35
:10075000808380818D7F808388E48093B80085E4E6
:100760008093BC000895CF93DF9391E0909319029A
:100770008823B9F0C091B800D091BA008091BC0034
:100780008A7B8093BC0060E082E10E947A0160E095
:1007900083E10E947A010E949503D093BA00C0932E
:1007A000B800DF91CF910895089508950895E091DC
:1007B000180280911702E81730F4F0E0E950FE4F7C
:1007C000808190E008958FEF9FEF08959091180237
:1007D000809117022FEF3FEF981748F4E92FF0E0D0
:1007E000E950FE4F208130E09F5F90931802C901CD
:1007F00008958091170290911802891B990B089512
:10080000CF92DF92EF92FF920F931F93CF93DF93DC
:100810007C01CB018A0120918D02222389F0EB011A
:100820006B01C40ED51ECC15DD0569F06991D701A9
:10083000ED91FC910190F081E02DC7010995F3CF76
:10084000642F0E946E03C801DF91CF911F910F9119
:10085000FF90EF90DF90CF900895CF93DF931F929A
:10086000CDB7DEB7698320918D022223F9F0209164
:10087000B002203258F021E030E0FC0133832283C3
:1008800090E080E00F90DF91CF91089580918E02EB
:10089000E82FF0E0E157FD4F998190838F5F8093BF
:1008A0008E028093B00281E090E0ECCF61E0CE0157
:1008B00001960E946E03F7CFCF92DF92EF92FF92E4
:1008C0000F931F93CF93DF93FC01C48121E020930A
:1008D0008D02C093AF0210928E021092B0028385F7
:1008E000682B88EB93E00E942D04D091B002D132A6
:1008F00008F092C00E94EB016B017C01809187029D
:10090000811165C082E08093870281E08093860236
:100910008FEF8093850210928402D0938302AFE818
:10092000B2E0E3E6F2E080E0D81385C01092620204
:1009300080916202CC0FC82BC09362028091610249
:10094000813009F07CC0109261020E94EB016B01C2
:100950007C01809162028093BB008091890290911A
:100960008A02A0918B02B0918C02892B8A2B8B2B4F
:1009700099F00E94EB010091890210918A02209166
:100980008B0230918C026C197D098E099F09061724
:10099000170728073907E0F18091BC0083FDD9CF04
:1009A00085EC8093BC000E94EB016B017C0180917F
:1009B0008702823009F445C0809185028F3F61F142
:1009C00080918502803241F18091850225C080911D
:1009D000890290918A02A0918B02B0918C02892B9E
:1009E0008A2B8B2B09F48ACF0E94EB01009189029C
:1009F00010918A0220918B0230918C026C197D0932
:100A00008E099F09061717072807390708F076CFC0
:100A1000809188020E94B30310928E021092B0025D
:100A200010928D02DF91CF911F910F91FF90EF9067
:100A3000DF90CF9008959D9191938F5F75CF85EE54
:100A4000B0CF8091890290918A02A0918B02B091DF
:100A50008C02892B8A2B8B2B09F4A9CF0E94EB01E6
:100A60000091890210918A0220918B0230918C02B0
:100A70006C197D098E099F09061717072807390782
:100A800008F095CFC5CF90E080E008950F931F93B5
:100A9000CF938C01C62F0E945C046C2F6460C80148
:100AA0000E945C046C2F6B7FC8010E945C0483EC85
:100AB00090E00197F1F7CF911F910F9108950F9357
:100AC0001F93CF93DF938C01D62FC42F607F642BAD
:100AD0000E94460580E1D89FB00111246C2BC8010B
:100AE000DF91CF911F910F910C944605CF93DF9327
:100AF000CDB7DEB728970FB6F894DEBF0FBECDBFD7
:100B000098E0E7E0F1E0DE01119601900D929A95F0
:100B1000E1F79091CC03981708F48FEF90E0880FDD
:100B2000991F21E030E02C0F3D1F820F931FFC0125
:100B30006081606840E084EC93E028960FB6F894FA
:100B4000DEBF0FBECDBFDF91CF910C945F0541E0BA
:100B50000E945F0581E090E00895FB010190002074
:100B6000E9F73197AF01461B570BDC01ED91FC9182
:100B70000280F381E02D0994CF93DF930E9432032A
:100B8000EC016FE371E08BE193E00E94AD058C0F07
:100B90009D1FDF91CF9108958F929F92AF92BF9248
:100BA000EF92FF920F931F93CF93DF93CDB7DEB7F2
:100BB000A1970FB6F894DEBF0FBECDBF7C01FA013E
:100BC000CB0119A2223008F42AE08E010F5D1F4FDD
:100BD000822E912CB12CA12CBF01A50194010E9461
:100BE0007015F901CA016A300CF5605DD8016E9389
:100BF0008D01232B242B252B79F790E080E0109793
:100C000021F0BD01C7010E94AD05A1960FB6F89471
:100C1000DEBF0FBECDBFDF91CF911F910F91FF902F
:100C2000EF90BF90AF909F908F900895695CDECF5A
:100C3000CF92DF92EF92FF920F931F93CF93DF93A8
:100C40006B01770FEE08FF08F7FE1FC0EC01E8818B
:100C5000F9810190F081E02D6DE209958C01442726
:100C60005527BA014C195D096E097F092AE0CE01AA
:100C70000E94CC05800F911FDF91CF911F910F91A2
:100C8000FF90EF90DF90CF9008952AE0B701A60182
:100C9000DF91CF911F910F91FF90EF90DF90CF9058
:100CA0000C94CC05BC0184EC93E00C94AD0585ED6F
:100CB0008093BC008091890290918A02A0918B025E
:100CC000B0918C020796A11DB11D23E0B695A795A2
:100CD000979587952A95D1F72091BC0024FD03C0F4
:100CE0001092870208954091890250918A02609182
:100CF0008B0270918C02452B462B472B69F3009792
:100D0000A105B10541F02AE22A95F1F700C001974B
:100D1000A109B109E1CF809188020C94B303259A0F
:100D20002D9A2FEF80E792E0215080409040E1F72C
:100D300000C000001D9AF5CF0F931F93CF93DF9350
:100D4000E0912B03F0912C0382E08083E091270354
:100D5000F09128031082E0912903F0912A038FEC8F
:100D6000808310923303E0912F03F091300386E0EB
:100D70008083E0912D03F0912E0380818061808338
:100D8000E0912D03F0912E03808188608083E091B3
:100D90002D03F0912E03808180688083E0912D03E4
:100DA000F0912E0380818F7D808361E082E00E943C
:100DB000A80161E083E00E94A80161E084E00E9454
:100DC000A80161E088E00E94A80161E089E00E943A
:100DD000A80161E08AE00E94A80161E08DE00E9424
:100DE000A80162E085E00E94A80162E086E00E941E
:100DF000A80162E087E00E94A80162E08BE00E9407
:100E0000A80162E08CE00E94A80160E082E00E94FC
:100E10007A0160E083E00E947A0160E084E00E9451
:100E20007A0160E088E00E947A0160E089E00E9437
:100E30007A0160E08AE00E947A0160E08DE00E9421
:100E40007A01109218021092170210928E021092DC
:100E5000B0020E94950384ED93E090933B0280934F
:100E60003A0285ED93E090933F0280933E020E9408
:100E700095031092C9038091CE03823018F098E058
:100E80009093C9038093CC0362E370E080E090E02C
:100E90000E9410026091CF0384EC93E00E945C04F6
:100EA00068EE73E080E090E00E94100260E384EC62
:100EB00093E00E944605CBE4D6E4CE010197F1F71A
:100EC00060E384EC93E00E9446052197F1F760E32C
:100ED00084EC93E00E94460583E592E00197F1F7E8
:100EE00060E284EC93E00E9446056091C903606271
:100EF00040E084EC93E00E945F0584E08093CA03A5
:100F000040E06CE084EC93E00E945F0540E061E02B
:100F100084EC93E00E945F05CBE3DFE1CE01019713
:100F2000F1F782E08093CB0340E066E084EC93E04D
:100F30000E945F0540E062E084EC93E00E945F0560
:100F40002197F1F788E08093CF0360E084EC93E091
:100F50000E945C0480E00E94760582E491E00E9499
:100F6000520681E00E94760581E591E00E945206DA
:100F700010E000E023E040E650E061E671E08EEA38
:100F800099E00E94020F22E040E550E068E671E03F
:100F900085E599E00E94020F21E048E850E06FE605
:100FA00071E08AED97E00E94020FDF91CF911F91CF
:100FB0000F910895D5E01FEF0FEF8BE3E82E8FE13F
:100FC000F82E8091F00181110FC06091EF0182E055
:100FD0000E947A016091EE0184E00E947A016091A2
:100FE000ED0183E00E947A018091EC01D12C801701
:100FF00021F00091EC01DD24D39482E00E945101A4
:10100000CC24C394892B09F4C12C83E00E945101A4
:10101000C0E0892B09F0C2E0CC2984E00E94510194
:10102000892B09F04BC080E0C82B1C1303C0DD20C6
:1010300009F460C040E061E084EC93E00E945F0549
:10104000C7010197F1F78091EC01813009F4BAC032
:10105000B8F1823009F4DCC0833009F4F6C080E0D6
:101060000E9476058CEC91E00E94520682E00E947C
:101070005101892B09F001C185E991E00E945206D6
:1010800082ED91E00E94520684E00E945101892B7A
:1010900009F0F6C085E991E00E94520681E00E94C5
:1010A000760588ED91E00E94520683E00E9451018E
:1010B000892B09F0E8C085E991E01AC084E0B4CF3B
:1010C00080E00E9476058CE991E00E94520681E062
:1010D0000E9476056091EA017091EB0184EC93E047
:1010E0000E9418068091EF01811169C089E791E0A3
:1010F0000E945206DF5FD53008F45BC087E791E0BD
:101100000E94BC0580E791E00E9432038091F001CB
:101110008111BCC080E591E00E94BC058CE591E0A6
:101120000E9432036091EA017091EB018BE193E040
:101130000E9418068091EF018111ABC084E291E01A
:101140000E94BC0582E491E00E9432036091E801B4
:101150007091E9018BE193E00E9418068091EE0105
:1011600081119AC087EF90E00E94BC0589E191E06F
:101170000E9432036091E6017091E7018BE193E0F8
:101180000E9418068091ED01811189C081ED90E0E7
:101190000E94BC058091F001811184C085E990E036
:1011A0000E94BC056FE371E08BE193E00E94AD0506
:1011B000D0E08CE090E00E9400111C2F02CF84E769
:1011C00091E096CF80E00E9476058AEA91E00E9445
:1011D000520681E00E9476056091E8017091E90174
:1011E00084EC93E00E94180641E06FED84EC93E0FC
:1011F0000E945F0586EB91E00E9452068091EE010D
:10120000811103C08AE791E073CF8DE791E070CF41
:1012100080E00E94760589EB91E00E94520681E011
:101220000E9476056091E6017091E70184EC93E0FD
:101230000E94180682EC91E00E9452068091ED0116
:10124000882301F381E891E053CF80E00E94760586
:1012500085EC91E00E9452068091F00181110AC054
:101260008CE891E00E94520681E00E94760582E4BB
:1012700091E03ECF85E891E0F5CF81E991E0FECEA7
:1012800081E991E009CF89E991E032CF85E591E0EC
:1012900043CF8CE291E054CF81E091E065CF8BEDBC
:1012A00090E076CF83EB90E07BCFCC24CA9483E0B0
:1012B000D82EE12CF12C8EE00E94D9018C018FE018
:1012C0000E94D9015C0180E10E94D901EC0122E376
:1012D00030E0D5010E94B515A70196010E94511575
:1012E0002901590124E630E0DE010E94B515A7016D
:1012F00096010E945115C90161E0003971E017079C
:101300000CF060E0D1E07FE1A716B1040CF4D0E06E
:10131000C1E088970CF0C0E01093EB010093EA0164
:101320005092E9014092E8013093E7012093E601F1
:101330006093EF01D093EE01C093ED0188E00E942D
:101340007A016D2F89E00E947A016C2F8AE00E9459
:101350007A018EE390E00E940011ADCFFF24F39458
:1013600011E0EE24E394C5E0D0E08BE00E9451014F
:1013700001E0009709F400E0112319F1892B09F528
:101380008091F0018E258093F00160E082E00E9460
:101390007A0160E083E00E947A0160E084E00E94CC
:1013A0007A0183E890E00E9432038091F00181117C
:1013B00062C087E790E00E94BC058FE090E00E9449
:1013C00000118CE00E94510111E0009709F410E037
:1013D000FF2019F1892B09F58091EC0190E001962D
:1013E000BE010E94A1158093EC0188E690E00E9466
:1013F00032034091EC0150E070E060E02AE08BE1C4
:1014000093E00E94CC056FE371E08BE193E00E94D2
:10141000AD058FE090E00E9400116091F0018DE039
:101420000E947A018091F0018823F1F085E00E940A
:10143000510161E0892B09F060E082E00E947A01AD
:1014400086E00E94510161E0892B09F060E083E0B1
:101450000E947A0187E00E94510161E0892B09F026
:1014600060E084E00E947A0183E090E00E94001135
:10147000F12E102F7ACF8CE790E09DCF1F920F9224
:101480000FB60F9211242F933F938F939F93AF9397
:10149000BF938091B8029091B902A091BA02B09125
:1014A000BB023091B70223E0230F2D3758F5019688
:1014B000A11DB11D2093B7028093B8029093B90289
:1014C000A093BA02B093BB028091BC029091BD027E
:1014D000A091BE02B091BF020196A11DB11D8093E3
:1014E000BC029093BD02A093BE02B093BF02BF9115
:1014F000AF919F918F913F912F910F900FBE0F90C1
:101500001F90189526E8230F0296A11DB11DD2CF7A
:101510001F920F920FB60F9211242F933F934F9368
:101520005F936F937F938F939F93AF93BF93EF934B
:10153000FF938BE193E00E94C302FF91EF91BF9173
:10154000AF919F918F917F916F915F914F913F915B
:101550002F910F900FBE0F901F9018951F920F9212
:101560000FB60F9211242F938F939F93EF93FF93B6
:10157000E0912B03F0912C038081E0913103F091F5
:10158000320382FD1BC09081809134038F5F8F7383
:1015900020913503821741F0E0913403F0E0E55EDD
:1015A000FC4F958F80933403FF91EF919F918F9122
:1015B0002F910F900FBE0F901F9018958081F4CF40
:1015C0001F920F920FB60F9211242F933F934F93B8
:1015D0005F936F937F938F939F93AF93BF93EF939B
:1015E000FF938091B900887F803609F44AC0F0F5F6
:1015F000883209F4A7C018F5803109F49BC0B8F40B
:10160000882309F4F9C0883009F494C0FF91EF9160
:10161000BF91AF919F918F917F916F915F914F910A
:101620003F912F910F900FBE0F901F90189588310A
:1016300009F488C0803251F78093850214C0803449
:1016400009F49DC040F48033B9F38833F9F68093F0
:10165000850285ECB0C0803509F485C0883509F471
:1016600096C0883499F60E945706D0CF883909F47D
:101670008CC038F5883729F050F4883611F080375F
:1016800029F683E0809387021092600257C0883861
:1016900009F47BC0803919F0803809F0B7CF809108
:1016A0006002803208F071C0E091600281E08E0F2C
:1016B000809360028091BB00F0E0E05CFD4F80838E
:1016C0003DC0803B39F0E0F4803A09F479C0883AB3
:1016D00009F09CCF84E08093870210923D02109223
:1016E0003C02E0913A02F0913B02099580913C0264
:1016F00081110FC081E080933C0210921A0209C050
:10170000803C09F4A6CF883C09F4A3CF883B09F0BC
:101710007DCFE0913D0281E08E0F80933D02F0E0AD
:10172000E65EFD4F80818093BB0090913D028091E9
:101730003C0229C0809162028093BB0085EC8093BB
:10174000BC0064CF9091840280918302981758F571
:10175000E091840281E08E0F80938402F0E0ED59E5
:10176000FD4F8081E9CFE091840281E08E0F80936C
:1017700084028091BB00F0E0ED59FD4F8083909191
:101780008402809183029817C8F285E8D8CFE0914F
:10179000840281E08E0F809384028091BB00F0E090
:1017A000ED59FD4F80838091860281115CCF81E0ED
:1017B0008093610284EA8093BC001092870226CF56
:1017C00085EC8093BC001092870280916002803289
:1017D00030F4E0916002F0E0E05CFD4F1082609137
:1017E000600270E0E0913E02F0913F0280E492E0FE
:1017F0000995109260020ACF1092850234CFE091D1
:10180000C202F091C3028081811107C08FEF9FEF68
:101810009093B6028093B5020895E091C202F091D0
:10182000C3020580F681E02D80819181F1CF809106
:10183000F5018F5F8093F5010895CF93DF93FC014D
:10184000A085B1858281938124813581EC013D831E
:101850002C83C481D5819B838A8311968D919C9121
:1018600012978E179F0721F41296DC93CE9311974F
:10187000118610868C9181508C93DF91CF910895C1
:101880000F931F93CF93DF938C01FB018081918194
:10189000D80113968F3F9807F1F4E801AF81B8851E
:1018A00012968D919C91139793838283EC01FD8313
:1018B000EC83B583A4831396FC93EE931297118760
:1018C0000087F80180818F5F8083DF91CF911F9126
:1018D0000F910895D90112962D913C911397E9012A
:1018E0004881598184179507A8F7DACF0F920FB670
:1018F000F8940F921F9211242F923F924F925F9271
:101900006F927F928F929F92AF92BF92CF92DF920F
:10191000EF92FF920F931F932F933F934F935F93F9
:101920006F937F938F939F93AF93BF93CF93DF93E7
:10193000EF93FF93A0911803B09119030DB60D9288
:101940000EB60D928091F501882321F081E08093FD
:10195000F40161C01092F401A0911803B091190331
:10196000E0911803F09119032D913C918789908D96
:1019700082179307A8F08091180390911903809122
:10198000180390911903259A2D9A2FEF87EA91E673
:10199000215080409040E1F700C000001D9AF5CF33
:1019A0002091150389E001C02150422F50E0849F0F
:1019B000F001859FF00D1124EF50FD4F9081992388
:1019C00099F3A181B28112966D917C9172836183AA
:1019D000289FC00111248C509D4F6817790721F46E
:1019E000858196819283818389E0849FF001859F20
:1019F000F00D1124EF50FD4F0180F281E02D868122
:101A00009781909319038093180320931503809175
:101A1000180390911903A0911803B0911903CD9167
:101A2000CDBFDD91DEBFFF91EF91DF91CF91BF91EF
:101A3000AF919F918F917F916F915F914F913F9166
:101A40002F911F910F91FF90EF90DF90CF90BF905B
:101A5000AF909F908F907F906F905F904F903F904E
:101A60002F901F900F900FBE0F9008958F929F920E
:101A7000BF92CF92DF92EF92FF920F931F93CF937B
:101A8000DF930FB6F8940F928091F5018150809307
:101A9000F5018091F501882379F080E00F900FBE69
:101AA000DF91CF911F910F91FF90EF90DF90CF903A
:101AB000BF909F908F90089580911A03882369F3B7
:101AC000E090DB02F090DC02F0E0E0E039E041E0A1
:101AD0008091D60281115EC0EF2B11F00E94FF0BA6
:101AE000E090F201F090F301E114F10409F47DC1FA
:101AF00089E0D82ECC24C3940FEF1FEF8091F5011D
:101B0000811161C1C091B302D091B4024E018FEF37
:101B1000881A980A9092B4028092B30281149104B8
:101B2000B9F48091C2029091C3022091C002309119
:101B3000C1023093C3022093C2029093C1028093EA
:101B4000C0028091F1018F5F8093F1010E94FF0B31
:101B50008091B5029091B602B12C8816990608F0D2
:101B600026C1E0911803F0911903E689DE9EF00189
:101B70001124EF50FD4F8081823010F0BB24B394CC
:101B80008091F401811103C0BB2009F425C1C092EA
:101B9000F40122C1D7011696ED91FC91A489B58973
:101BA0006685778580899189EB019D838C83808907
:101BB0009189EC017B836A83BF01645F7F4F11963B
:101BC0000D911C9112970617170721F412969C93FA
:101BD0008E931197158A148A8C9181508C93A285CB
:101BE000B3858481958166817781EC017D836C83E7
:101BF00066817781EB019B838A83CF0102961196E0
:101C00000D911C9112970817190721F412967C93D5
:101C10006E931197138612862C9121502C93A689CE
:101C2000209115032A1710F4A09315033A9FD001B1
:101C30001124AF50BD4F11960D90BC91A02DB583CE
:101C4000A48314966D917C9115977783668314967F
:101C50006D917C911597EB019B838A8315969C93DC
:101C60008E9314979689939FD0011124AF50BD4F46
:101C7000B387A2878C918F5F8C93A0911803B0914A
:101C8000190356968C91891708F022CF4093F401DE
:101C90001FCFE091C202F091C3020580F681E02DD2
:101CA0000680F781E02D828193818816990628F4B9
:101CB0009093B6028093B50254CFC285D3858481B8
:101CC000958126813781DC0115963C932E931497DC
:101CD00026813781D90113969C938E931297CF0159
:101CE000029649815A814817590711F43A8329838A
:101CF00013861286288121502883A489B5891097DC
:101D0000F9F02685378540895189E9015D834C8347
:101D100040895189EA013B832A8311966D917C9118
:101D200012979F01245F3F4F6217730721F41296A9
:101D30005C934E931197158A148A2C9121502C9301
:101D4000A689209115032A1710F4A0931503DA9E93
:101D5000D0011124AF50BD4F11960D90BC91A02D14
:101D6000B583A48314962D913C91159737832683D0
:101D700014962D913C911597E9019B838A831596C2
:101D80009C938E93149796899D9DD0011124AF50FA
:101D9000BD4FB387A2878C918F5F8C93E09118031E
:101DA000F09119038689891710F4BB24B394E0914C
:101DB000C202F091C302808181116BCF1093B602F1
:101DC0000093B502CECE8091F2019091F30101967D
:101DD0009093F3018093F201D1E0ED1AF10809F03C
:101DE0008DCE1092F3011092F2018091F4018823BC
:101DF00009F453CE80911803909119030E94760C38
:101E000081E04CCE7F928F929F92AF92BF92CF9201
:101E1000DF92EF92FF920F931F93CF93DF93982E51
:101E2000A92E762E872E7A01B22E0E94170CC7019A
:101E30000E942C146C010E94360DC114D10411F4BF
:101E40000E948F060E94170C82E390E00E942C14DF
:101E5000EC010E94360D209799F382E3DE011D927A
:101E60008A95E9F7D88ECF8AA70165EA70E0C601A6
:101E70000E94D615E72DF82DAE01475E5F4FCF01CA
:101E800040962191DA012D93AD019F012150310936
:101E9000D9012C91222319F0E817F90791F7F701DE
:101EA0003197EC0DFD1D18A6BE8ABBA61B861A86AF
:101EB0001D8A1C8AD987C88784E090E08B19910914
:101EC0009D878C87DB8BCA8B9082DF011197AC9248
:101ED00011971C92119780E88C9311971C92579739
:101EE0001C9211971C92B397F983E8830115110591
:101EF00019F0F801D183C0830FB6F8940F92809146
:101F00001A038F5F80931A0380911803909119032D
:101F1000AE89892B09F01FC1D0931903C093180310
:101F200080911A03813009F0C2C024EF32E030936F
:101F3000F3022093F2028FEF9FEF9093F5028093CC
:101F4000F4023093F7022093F6023093F9022093C3
:101F5000F8021092F1022DEF32E03093FC02209350
:101F6000FB029093FE028093FD02309300032093C6
:101F7000FF0230930203209301031092FA0226E03D
:101F800033E0309305032093040390930703809379
:101F90000603309309032093080330930B03209327
:101FA0000A03109203032FE033E030930E032093D3
:101FB0000D039093100380930F033093120320932B
:101FC0001103309314032093130310920C032BEE90
:101FD00032E03093EA022093E9029093EC0280937E
:101FE000EB023093EE022093ED023093F002209347
:101FF000EF021092E80222EE32E03093E1022093E9
:10200000E0029093E3028093E2023093E502209392
:10201000E4023093E7022093E6021092DF0229EDFA
:1020200032E03093D8022093D7029093DA02809363
:10203000D9023093DC022093DB023093DE0220933E
:10204000DD021092D60220ED32E03093CF022093D1
:10205000CE029093D1028093D0023093D30220938A
:10206000D2023093D5022093D4021092CD0227ECF5
:1020700032E03093C6022093C5029093C802809349
:10208000C7023093CA022093C9023093CC02209336
:10209000CB021092C40288EE92E09093C302809328
:1020A000C2028FED92E09093C1028093C0028091B2
:1020B00016038F5F8093160389A7809115038A17F3
:1020C00010F4A093150329E02A9FD0011124AF50EA
:1020D000BD4F11960D90BC91A02DBD83AC8314967D
:1020E0008D919C9115979F838E831496ED91FC9111
:1020F0001597CE0102969383828315969C938E93B7
:102100001497EE89E29FF0011124EF50FD4FFB87F9
:10211000EA8780818F5F80830F900FBE80911703C5
:10212000882351F0E0911803F091190396898E8964
:10213000981710F40E94760C81E0DF91CF911F91E7
:102140000F91FF90EF90DF90CF90BF90AF909F9056
:102150008F907F900895809117038111A8CFE0910F
:102160001803F09119038689A81708F4A0CFD0931B
:102170001903C09318039BCF80E0E82E80E0F82E6F
:102180008091F60181110CC08091F102823010F033
:102190000E94760CE114F10499F30E94B602F0CF8C
:1021A0000FB6F8940F92E091D202F091D302C6815B
:1021B000D781CE0102960E941D0C80911A03815096
:1021C00080931A038091F60181508093F6010F905D
:1021D0000FBE0F89188D0115110539F00E94170CDB
:1021E000C8010E94C8140E94360D209709F4C8CF78
:1021F0000E94170CCE010E94C8140E94360DC0CF59
:10220000CF92DF92EF92FF920F931F93CF93DF93C2
:10221000EC010E94170CC090B302D090B402009160
:10222000C2021091C302E090C002F090C1028091FE
:1022300018039091190302960E941D0CCC0DDD1D10
:10224000E0911803F0911903D383C28360911803BE
:10225000709119036E5F7F4FCC15DD0590F4C701B7
:102260000E94400C0E94360D811102C00E94760C23
:10227000DF91CF911F910F91FF90EF90DF90CF9062
:102280000895C8010E94400C8091B5029091B60259
:10229000C817D90738F7D093B602C093B502E2CF7A
:1022A0000F920FB6F8940F921F9211242F923F9223
:1022B0004F925F926F927F928F929F92AF92BF9256
:1022C000CF92DF92EF92FF920F931F932F933F9342
:1022D0004F935F936F937F938F939F93AF93BF932E
:1022E000CF93DF93EF93FF93A0911803B09119035D
:1022F0000DB60D920EB60D9213BE8091F5018111AF
:10230000F9C08091B3029091B40201969093B40207
:102310008093B302009781F52091C2023091C302ED
:102320004091C0025091C1025093C3024093C20237
:102330003093C1022093C0022091F1012F5F2093BE
:10234000F101E091C202F091C3022081211107C086
:102350002FEF3FEF3093B6022093B5020DC0E0910E
:10236000C202F091C3020580F681E02D2081318107
:102370003093B6022093B5022091B5023091B60297
:102380008217930710F420E0A1C020E039E0D32E9B
:10239000E091C202F091C3023081311107C08FEF8A
:1023A0009FEF9093B6028093B50290C0E091C20275
:1023B000F091C3020580F681E02D0680F781E02DC3
:1023C000428153818417950728F45093B6024093B5
:1023D000B5027CC0A285B385448155816681778131
:1023E000EA017D836C8366817781EB015B834A839D
:1023F000AF014E5F5F4F11960D911C91129704171C
:10240000150721F412967C936E931197138612860A
:102410003C9131503C93A489B5891097F9F06685B9
:10242000778500891189EB011D830C83008911894F
:10243000E8017B836A831196ED90FC901297BF01AF
:10244000645F7F4FE616F70621F412961C930E93F5
:102450001197158A148A3C9131503C93A68930918A
:1024600015033A1710F4A0931503DA9ED001112436
:10247000AF50BD4F11960D90BC91A02DB583A48394
:1024800014966D917C9115977783668314966D9160
:102490007C911597EB015B834A8315965C934E9371
:1024A000149746894D9DD0011124AF50BD4FB3877D
:1024B000A2873C913F5F3C93E0911803F091190390
:1024C0003689341708F064CF21E062CFE091180319
:1024D000F0911903E689D9E0ED9FF0011124EF5046
:1024E000FD4F8081823008F021E08091F40181115C
:1024F0000EC00AC08091F2019091F3010196909371
:10250000F3018093F2016CC0222309F469C0809129
:10251000F501882321F081E08093F40161C01092DD
:10252000F401A0911803B0911903E0911803F09100
:1025300019032D913C918789908D82179307A8F0FC
:1025400080911803909119038091180390911903B9
:10255000259A2D9A2FEF87EA91E6215080409040EE
:10256000E1F700C000001D9AF5CF2091150389E026
:1025700001C02150422F50E0849FF001859FF00D53
:102580001124EF50FD4F9081992399F3A181B281DD
:1025900012966D917C9172836183289FC0011124F2
:1025A0008C509D4F6817790721F48581968192831D
:1025B000818389E0849FF001859FF00D1124EF5005
:1025C000FD4F0180F281E02D868197819093190360
:1025D0008093180320931503809118039091190399
:1025E000A0911803B0911903CD91CDBFDD91DEBF4D
:1025F000FF91EF91DF91CF91BF91AF919F918F911B
:102600007F916F915F914F913F912F911F910F910A
:10261000FF90EF90DF90CF90BF90AF909F908F9002
:102620007F906F905F904F903F902F901F900F90F2
:102630000FBE0F9008950E9450111895EBE1F3E042
:102640001382128288EE93E0A0E0B0E08483958349
:10265000A683B78323E131E03183208325EC30E08A
:102660003587248724EC30E03787268720EC30E05C
:10267000318B208B21EC30E0338B228B22EC30E04D
:10268000358B248B26EC30E0378B268B118E128E07
:10269000138E148EE8EBF3E0138212828483958309
:1026A000A683B78385E291E091838083E4ECF3E035
:1026B0001382128287E391E09183808387E284838F
:1026C00080E1818782E0828713860895CF93DF932C
:1026D000CDB7DEB760970FB6F894DEBF0FBECDBFA3
:1026E000789484B5826084BD84B5816084BD85B5ED
:1026F000826085BD85B5816085BD80916E008160F9
:1027000080936E001092810080918100826080939E
:1027100081008091810081608093810080918000A0
:102720008160809380008091B10084608093B100CB
:102730008091B00081608093B00080917A008460C5
:1027400080937A0080917A00826080937A008091F1
:102750007A00816080937A0080917A00806880930B
:102760007A001092C10020910501309106018FEF8F
:1027700098E0821B930B90930201809301010E94C9
:102780009C06AFEDB1E0FE013196BF018D918193C2
:10279000882321F081E0AF3EB807C1F701EB12E0DA
:1027A00020E044E650E08CEB90E10E94020F882389
:1027B00009F446C0813009F043C0F8942FEF3FEF91
:1027C0003093B6022093B502809317031092B4029F
:1027D0001092B302A89588E190EC0FB6F894A895F2
:1027E000809360000FBE90936000A0911803B09199
:1027F0001903CD91CDBFDD91DEBFFF91EF91DF9148
:10280000CF91BF91AF919F918F917F916F915F9188
:102810004F913F912F911F910F91FF90EF90DF907B
:10282000CF90BF90AF909F908F907F906F905F9070
:102830004F903F902F901F900F900FBE0F900895D4
:10284000809100010E949C0600E010E00115110536
:10285000E9F30E94B602FACF0F931F93CF93DF9351
:102860008230910510F482E090E0E091D203F09183
:10287000D30330E020E0B0E0A0E0309799F42115D8
:10288000310509F44AC0281B390B24303105D8F52D
:102890008A819B816115710589F1FB019383828394
:1028A000FE0111C0408151810281138148175907EF
:1028B000E0F04817590799F4109761F012960C93BD
:1028C000129713961C933296CF01DF91CF911F91EF
:1028D0000F9108950093D2031093D303F4CF2115E1
:1028E000310551F04217530738F0A901DB019A0175
:1028F000BD01DF01F801C1CFEF01F9CF9093D30300
:102900008093D203CDCFFE01E20FF31F8193919309
:102910002250310939832883D7CF2091D0033091B9
:10292000D103232B41F42091030130910401309312
:10293000D1032093D0032091010130910201211590
:10294000310541F42DB73EB7409105015091060184
:10295000241B350BE091D003F091D103E217F3076C
:10296000A0F42E1B3F0B2817390778F0AC014E5FFF
:102970005F4F2417350748F04E0F5F1F5093D10368
:102980004093D003819391939FCFF0E0E0E09CCF00
:10299000CF93DF930097E9F0FC0132971382128204
:1029A000A091D203B091D303ED0130E020E0109765
:1029B000A1F420813181820F931F2091D0033091A7
:1029C000D1032817390709F061C0F093D103E093D0
:1029D000D003DF91CF910895EA01CE17DF07E8F524
:1029E0004A815B819E0141155105B1F7E901FB83E5
:1029F000EA8349915991C40FD51FEC17FD0761F483
:102A0000808191810296840F951FE90199838883C3
:102A1000828193819B838A83F0E0E0E012968D911E
:102A20009C9113970097B9F52D913C911197CD0189
:102A30000296820F931F2091D0033091D103281763
:102A4000390739F6309751F51092D3031092D2031B
:102A5000B093D103A093D003BCCFD383C283408172
:102A60005181840F951FC817D90761F44E5F5F4FDE
:102A700088819981480F591F518340838A819B81A6
:102A8000938382832115310509F0B0CFF093D303EE
:102A9000E093D2039ECFFD01DC01C0CF13821282EE
:102AA000D7CF052E97FB1EF400940E94681557FDA2
:102AB00007D00E94701507FC03D04EF40C946815E3
:102AC00050954095309521953F4F4F4F5F4F08955A
:102AD00090958095709561957F4F8F4F9F4F08958A
:102AE000A1E21A2EAA1BBB1BFD010DC0AA1FBB1F12
:102AF000EE1FFF1FA217B307E407F50720F0A21B84
:102B0000B30BE40BF50B661F771F881F991F1A94F0
:102B100069F760957095809590959B01AC01BD011A
:102B2000CF010895A29FB001B39FC001A39F700D74
:102B3000811D1124911DB29F700D811D1124911DC5
:102B4000089597FB072E16F4009407D077FD09D05F
:102B50000E94BC1507FC05D03EF4909581959F4FCF
:102B60000895709561957F4F08950E949215B7FF63
:102B70000895821B930B0895AA1BBB1B51E107C04C
:102B8000AA1FBB1FA617B70710F0A61BB70B881FFD
:102B9000991F5A95A9F780959095BC01CD0108958C
:102BA000EE0FFF1F0590F491E02D0994DC0101C0A8
:0E2BB0006D9341505040E0F70895F894FFCF28
:102BBE00030000D403800000004000140054000005
:102BCE00000000E50242026F024D03A0027E029257
:102BDE0002000000002D0400044305D603F903E6AD
:102BEE0003D70300000000A705420243056D030D45
:102BFE000A00506C616E74204361726520537973C4
:102C0E0000496E697469616C697A696E672E2E2E41
:102C1E00004D616E75616C0053656E736F7200418D
:102C2E0075746F002044525900204F4B00484F548A
:102C3E00004C4F57004D414E55414C004155544F9D
:102C4E00004F4E20004F4646004F4E00536F696CAA
:102C5E00204D6F6973747572650054656D70657281
:102C6E0061747572650043200048756D69646974FE
:102C7E0079002520004D6F64653A200050756D7007
:102C8E003A002046616E3A004C696768743A004912
:042C9E00444C45005D
:00000001FF
