:020000040000FA
:100000000C94FE000C9426010C9426010C942601FD
:100010000C9426010C9426010C941A180C942601B9
:100020000C9426010C9426010C9426010C942601B4
:100030000C9426010C9426010C9426010C942601A4
:100040000C94A20D0C9426010C94120E0C94EC0D41
:100050000C9426010C9426010C9426010C94260184
:100060000C94440E0C942601446973706C617920E1
:100070006D6F64653A20004175746F20616374751B
:1000800061746F7220636F6E74726F6C3A204143BB
:1000900054495645004175746F20616374756174ED
:1000A0006F7220636F6E74726F6C3A2050415553BB
:1000B000454400202520202D3E204F4B00202520A8
:1000C000202D3E204C4F572C2048756D6964697473
:1000D00079204C4544204F4E00204320202D3E20C7
:1000E0004F4B00204320202D3E20484F542C2054BD
:1000F000656D70204C4544204F4E0048756D696415
:100100006974793A200020202D3E204F4B0020209A
:100110002D3E204452592C20536F696C204C45448D
:10012000204F4E0054656D70657261747572653A4A
:1001300020004155544F004D414E55414C00536FE6
:10014000696C204D6F697374757265205261773ADE
:1001500020004D6F64653A20003D3D3D3D3D3D3DF5
:100160003D3D3D20504C414E54204341524520538B
:10017000595354454D203D3D3D3D3D3D3D3D3D3D6B
:10018000004155544F004D414E55414C004D6F6458
:1001900065206368616E67656420746F3A200000B3
:1001A000000000240027002A00000000002500288D
:1001B000002B000000000023002600290004040496
:1001C0000404040404020202020202030303030300
:1001D00003010204081020408001020408102001DD
:1001E00002040810200000000800020100000304BF
:1001F000070000000000000000001D1811241FBEB1
:10020000CFEFD8E0DEBFCDBF11E0A0E0B1E0EEEC73
:10021000F5E302C005900D92A43EB107D9F723E0A3
:10022000A4EEB1E001C01D92A63DB207E1F710E0D7
:10023000CEEFD0E004C02197FE010E94CF1ACD3F3F
:10024000D107C9F70E9465180C94E51A0C940000B8
:10025000833081F028F4813099F08230A9F008953C
:100260008730A9F08830C9F08430B1F480918000E3
:100270008F7D03C0809180008F77809380000895E8
:1002800084B58F7784BD089584B58F7DFBCF809131
:10029000B0008F778093B00008958091B0008F7D7B
:1002A000F9CFCF93DF93282F30E0F901EB51FE4FC8
:1002B0008491F901EF52FE4FD491F901E354FE4FBE
:1002C000C491CC23A1F081110E942801EC2FF0E011
:1002D000EE0FFF1FED54FE4FA591B491EC91ED236D
:1002E00081E090E009F480E0DF91CF91089580E013
:1002F00090E0FACF1F93CF93DF93282F30E0F901DE
:10030000EB51FE4F8491F901EF52FE4FD491F90168
:10031000E354FE4FC491CC23A9F0162F81110E9403
:100320002801EC2FF0E0EE0FFF1FE755FE4FA591DF
:10033000B4918FB7F894EC91111108C0D095DE23D9
:10034000DC938FBFDF91CF911F910895DE2BF8CF03
:10035000CF93DF9390E0FC01EF52FE4F2491835442
:100360009E4FFC0184918823D1F090E0880F991F63
:10037000FC01E156FE4FA591B491FC01E755FE4FFB
:10038000C591D491623071F49FB7F8943C91822F5B
:10039000809583238C93E8812E2B28839FBFDF9148
:1003A000CF9108958FB7F894EC912E2B2C938FBF9B
:1003B000F6CF8E50806480937C0080917A008064B8
:1003C00080937A0080917A0086FDFCCF809178003E
:1003D0009091790008953FB7F8948091BE02909172
:1003E000BF02A091C002B091C10226B5A89B05C072
:1003F0002F3F19F00196A11DB11D3FBFBA2FA92FA4
:10040000982F8827BC01CD01620F711D811D911DA0
:1004100042E0660F771F881F991F4A95D1F708950C
:100420008F929F92AF92BF92CF92DF92EF92FF9204
:100430004B015C010E94EB016B017C010E94EB010E
:100440006C197D098E099F09683E734081059105ED
:10045000A8F321E0821A9108A108B10888EEC80E1D
:1004600083E0D81EE11CF11C81149104A104B104A5
:1004700029F7FF90EF90DF90CF90BF90AF909F90C3
:100480008F900895AF92BF92CF92DF92EF92FF923A
:100490000F931F93CF93DF936C017B018B01040FAC
:1004A000151FEB015E01AE18BF08C017D10759F048
:1004B0006991D601ED91FC910190F081E02DC6018A
:1004C0000995892B79F7C501DF91CF911F910F9184
:1004D000FF90EF90DF90CF90BF90AF900895FC0118
:1004E000538D448D252F30E0842F90E0821B930B99
:1004F000541710F0CF96089501970895FC01918D3F
:10050000828D981761F0A28DAE0FBF2FB11D5D9641
:100510008C91928D9F5F9F73928F90E008958FEFE3
:100520009FEF0895FC01918D828D981731F0828D97
:10053000E80FF11D858D90E008958FEF9FEF0895EE
:10054000FC01918D228D892F90E0805C9F4F821B52
:1005500091098F73992708958DE193E00E94A0027D
:1005600021E0892B09F420E0822F08950E94AC023B
:1005700081110C940000089580E090E0892B11F027
:100580000C94B6020895FC01A48DA80FB92FB11DDB
:10059000A35ABF4F2C91848D90E001968F739927B9
:1005A000848FA689B7892C93A089B1898C91837097
:1005B00080648C93938D848D981306C00288F38990
:1005C000E02D80818F7D80830895EF92FF920F93BD
:1005D0001F93CF93DF93EC0181E0888F9B8D8C8DEF
:1005E00098131AC0E889F989808185FF15C09FB7E3
:1005F000F894EE89FF896083E889F98980818370A6
:10060000806480839FBF81E090E0DF91CF911F9154
:100610000F91FF90EF900895F62E0B8D10E00F5F75
:100620001F4F0F731127E02E8C8D8E110CC00FB64B
:1006300007FCFACFE889F989808185FFF5CFCE01E3
:100640000E94C302F1CFEB8DEC0FFD2FF11DE35A99
:10065000FF4FF0829FB7F8940B8FEA89FB89808166
:100660008062CFCF0F931F93CF93DF938C01D0E0A5
:10067000C0E0F801EC0FFD1F6491662341F08DE1AD
:1006800093E00E94E502892B11F02196F2CFCE0172
:10069000DF91CF911F910F910895CF93DF93EC01DC
:1006A000888D8823B9F0AA89BB89E889F9898C915A
:1006B00085FD03C0808186FD0DC00FB607FCF7CF16
:1006C0008C9185FFF2CF808185FFEDCFCE010E9416
:1006D000C302E9CFDF91CF910895089520913E02A2
:1006E000260F3327331F21323105ECF42091890284
:1006F000FC0190E080E0243069F082E00895A09150
:100700003E022191AC01445E5D4FA40FB52FB11D97
:100710002C930196861798F380913E02680F6093A0
:100720003E0280E0089581E008951092890281E000
:10073000809388021092630261E082E10E947A0154
:1007400061E083E10E947A01E9EBF0E080818E7F35
:10075000808380818D7F808388E48093B80085E4E6
:100760008093BC000895CF93DF9391E090931B0298
:100770008823B9F0C091B800D091BA008091BC0034
:100780008A7B8093BC0060E082E10E947A0160E095
:1007900083E10E947A010E949503D093BA00C0932E
:1007A000B800DF91CF910895089508950895E091DC
:1007B0001A0280911902E81730F4F0E0E750FE4F7A
:1007C000808190E008958FEF9FEF089590911A0235
:1007D000809119022FEF3FEF981748F4E92FF0E0CE
:1007E000E750FE4F208130E09F5F90931A02C901CD
:1007F00008958091190290911A02891B990B08950E
:10080000CF92DF92EF92FF920F931F93CF93DF93DC
:100810007C01CB018A0120918F02222389F0EB0118
:100820006B01C40ED51ECC15DD0569F06991D701A9
:10083000ED91FC910190F081E02DC7010995F3CF76
:10084000642F0E946E03C801DF91CF911F910F9119
:10085000FF90EF90DF90CF900895CF93DF931F929A
:10086000CDB7DEB7698320918F022223F9F0209162
:10087000B202203258F021E030E0FC0133832283C1
:1008800090E080E00F90DF91CF91089580919002E9
:10089000E82FF0E0EF56FD4F998190838F5F8093B2
:1008A00090028093B20281E090E0ECCF61E0CE0153
:1008B00001960E946E03F7CFCF92DF92EF92FF92E4
:1008C0000F931F93CF93DF93FC01C48121E020930A
:1008D0008F02C093B102109290021092B2028385EF
:1008E000682B8AEB93E00E942D04D091B202D132A2
:1008F00008F092C00E94EB016B017C01809189029B
:10090000811165C082E08093890281E08093880232
:100910008FEF8093870210928602D0938502A1E91F
:10092000B2E0E5E6F2E080E0D81385C01092640200
:1009300080916402CC0FC82BC09364028091630243
:10094000813009F07CC0109263020E94EB016B01C0
:100950007C01809164028093BB0080918B02909116
:100960008C02A0918D02B0918E02892B8A2B8B2B49
:1009700099F00E94EB0100918B0210918C02209162
:100980008D0230918E026C197D098E099F09061720
:10099000170728073907E0F18091BC0083FDD9CF04
:1009A00085EC8093BC000E94EB016B017C0180917F
:1009B0008902823009F445C0809187028F3F61F13E
:1009C00080918702803241F18091870225C0809119
:1009D0008B0290918C02A0918D02B0918E02892B96
:1009E0008A2B8B2B09F48ACF0E94EB0100918B029A
:1009F00010918C0220918D0230918E026C197D092C
:100A00008E099F09061717072807390708F076CFC0
:100A100080918A020E94B303109290021092B20257
:100A200010928F02DF91CF911F910F91FF90EF9065
:100A3000DF90CF9008959D9191938F5F75CF85EE54
:100A4000B0CF80918B0290918C02A0918D02B091D9
:100A50008E02892B8A2B8B2B09F4A9CF0E94EB01E4
:100A600000918B0210918C0220918D0230918E02A8
:100A70006C197D098E099F09061717072807390782
:100A800008F095CFC5CF90E080E008950F931F93B5
:100A9000CF938C01C62F0E945C046C2F6460C80148
:100AA0000E945C046C2F6B7FC8010E945C0483EC85
:100AB00090E00197F1F7CF911F910F9108950F9357
:100AC0001F93CF93DF938C01D62FC42F607F642BAD
:100AD0000E94460580E1D89FB00111246C2BC8010B
:100AE000DF91CF911F910F910C944605CF93DF9327
:100AF000CDB7DEB728970FB6F894DEBF0FBECDBFD7
:100B000098E0E7E0F1E0DE01119601900D929A95F0
:100B1000E1F79091CE03981708F48FEF90E0880FDB
:100B2000991F21E030E02C0F3D1F820F931FFC0125
:100B30006081606840E086EC93E028960FB6F894F8
:100B4000DEBF0FBECDBFDF91CF910C945F0541E0BA
:100B50000E945F0581E090E00895FB010190002074
:100B6000E9F73197AF01461B570BDC01ED91FC9182
:100B70000280F381E02D09948F929F92AF92BF92F1
:100B8000EF92FF920F931F93CF93DF93CDB7DEB712
:100B9000A1970FB6F894DEBF0FBECDBF7C01FA015E
:100BA000CB0119A2223008F42AE08E010F5D1F4FFD
:100BB000822E912CB12CA12CBF01A50194010E9481
:100BC0006F1AF901CA016A300CF5605DD8016E93A5
:100BD0008D01232B242B252B79F790E080E01097B3
:100BE00021F0BD01C7010E94AD05A1960FB6F89492
:100BF000DEBF0FBECDBFDF91CF911F910F91FF9050
:100C0000EF90BF90AF909F908F900895695CDECF7A
:100C1000CF92DF92EF92FF920F931F93CF93DF93C8
:100C20006B01770FEE08FF08F7FE1FC0EC01E881AB
:100C3000F9810190F081E02D6DE209958C01442746
:100C40005527BA014C195D096E097F092AE0CE01CA
:100C50000E94BC05800F911FDF91CF911F910F91D2
:100C6000FF90EF90DF90CF9008952AE0B701A601A2
:100C7000DF91CF911F910F91FF90EF90DF90CF9078
:100C80000C94BC05BC0186EC93E00C94AD05CF93AD
:100C9000DF930E943203EC016FE371E08DE193E09A
:100CA0000E94AD058C0F9D1FDF91CF91089585EDBA
:100CB0008093BC0080918B0290918C02A0918D0258
:100CC000B0918E020796A11DB11D23E0B695A795A0
:100CD000979587952A95D1F72091BC0024FD03C0F4
:100CE00010928902089540918B0250918C0260917C
:100CF0008D0270918E02452B462B472B69F300978E
:100D0000A105B10541F02AE22A95F1F700C001974B
:100D1000A109B109E1CF80918A020C94B303CC24DC
:100D2000CA9483E0D82EE12CF12C8EE00E94D901E8
:100D30008C018FE00E94D9015C0180E10E94D90101
:100D4000EC0122E330E0D5010E94B41AA70196011C
:100D50000E94501A2901590124E630E0DE010E9468
:100D6000B41AA70196010E94501AC90161E0003926
:100D700071E017070CF060E0D1E07FE1A716B10445
:100D80000CF4D0E0C1E088970CF0C0E01093EB01C8
:100D90000093EA015092E9014092E8013093E701A3
:100DA0002093E6016093EF01D093EE01C093ED0133
:100DB00088E00E947A016D2F89E00E947A016C2FF1
:100DC0008AE00E947A018EE390E00E945F14ADCF2A
:100DD000CF93DF93CDB7DEB72A970FB6F894DEBF77
:100DE0000FBECDBF25E02E83CC24CA94DC2C442436
:100DF0004A94542C22242A94322C3FEF3A878FEFC6
:100E0000898739E0732E44E0A42EB12C0091F101C2
:100E10001091F2011D821C82912C90E0D801519614
:100E2000B887AF830FB6F8940F92F801828D8823AC
:100E300089F18150828F80819181892B71F4E091B9
:100E40001A03F0911B03309719F084A58F5F84A7D4
:100E5000D8011596FC93EE931497F80180858823AA
:100E600039F0C80108960E94AE0F81110E948F11BF
:100E70000F900FBE8DE891E00E9432038091F00147
:100E8000882309F425C286E891E00E94470666247B
:100E9000639408C02C813D81232B09F0A5C00F90DD
:100EA0000FBE612C8091F00181110FC06091EF01A4
:100EB00082E00E947A016091EE0184E00E947A0152
:100EC0006091ED0183E00E947A018091EC01B98587
:100ED0008B1729F0E091EC01E9876624639482E0A6
:100EE0000E94510111E0892B09F410E083E00E9477
:100EF0005101892B09F4EFC182E0182B84E00E9494
:100F00005101892B09F4E9C184E0182B1F83FA856C
:100F1000F11711F0662463940091EA011091EB013E
:100F20000215130579F4E090E801F090E901E4146A
:100F3000F50441F48090E6019090E7018C149D0443
:100F400009F4CDC10091EA011091EB01E090E801B4
:100F5000F090E9018090E6019090E70140E061E0C7
:100F600086EC93E00E945F058BE39FE10197F1F728
:100F70008091EC01813009F442C208F422C282302F
:100F800009F460C2833009F47DC280E00E947605D6
:100F900089EA91E00E94420682E00E945101892B79
:100FA00009F488C28FE591E00E9442068FEA91E041
:100FB0000E94420684E00E945101892B09F47DC2FF
:100FC0008FE591E00E94420681E00E94760585EB64
:100FD00091E00E94420683E00E945101892B09F4AE
:100FE0006FC287E691E005C2911109C08091F701B7
:100FF00089838091B5029091B6029B838A830F907A
:101000000FBE0E9453100FB6F8940F92D8015D9650
:101010008C915D978F3F11F45D961C92F801868D3F
:101020008F3F09F4168E0F900FBEBE016C5F7F4F8D
:10103000CE0101960E947B0F8111BAC0C8010E94A7
:101040005910882309F4AEC0D8018D919C91892B49
:1010500009F078C00FB6F8940F92F801E480F5809B
:10106000E114F10409F49CC0D70156968C9156976F
:10107000E0911A03F0911B039689891708F085C047
:101080001C962D913C911D9737FD0CC0E0911A03E1
:10109000F0911B0396899501291B31091D963C93FC
:1010A0002E931C97879DC00111248D509D4FF701F1
:1010B000228533852817390709F05FC04701F2E020
:1010C0008F0E911CC4010E94A610E0911A03F091AA
:1010D0001B03E689D7015696EC93809117038E1770
:1010E00010F4E09317037E9EF0011124ED50FD4FA4
:1010F0000180F281E02DD7011596FC93EE931497B1
:101100008481958117969C938E931697A481B581BF
:1011100013969C928E92129795828482D70156964E
:10112000EC915697E79DF0011124ED50FD4F1B9671
:10113000FC93EE931A9780818F5F80839924939418
:101140000F900FBEEC80FD8060911A0370911B031D
:10115000645F7F4F8F8198850E94C91061E0C7014D
:101160000E94FF10C8010E9464100E944F1281115A
:1011700002C00E948F1191E055CEE0911A03F091C8
:101180001B038689F701868BD9CFE0911A03F09172
:101190001B03992493949B969C918689981780F2BF
:1011A000912CCECFC8010E9464100E944F12E3CF51
:1011B000C8010E9464100E944F12C8010E94591079
:1011C0008823C9F2992009F46CCE0FB6F8940F92D7
:1011D000F8018189882309F479C00688F789E02D10
:1011E0008081F4E0F81B8F2FD80114960D911C918B
:1011F0000115110509F453CEF80193A5981708F4C9
:10120000982FD80156968C915697891709F447CE96
:101210009C962C919C97213009F041CE56969C9338
:1012200056971C962D913C911D9737FD07C095014F
:10123000291B31091D963C932E931C97879DC00155
:1012400011248D509D4FF8012285338528173907C9
:1012500009F025CE7801F2E0EF0EF11CC7010E94E3
:10126000A610D8015696EC91809117038E1710F4B2
:10127000E09317037E9EF0011124ED50FD4F018095
:10128000F281E02DD8011596FC93EE93149784819A
:10129000958117969C938E931697A481B58113968A
:1012A000FC92EE921297F582E482D8015696EC9168
:1012B0005697E79DF0011124ED50FD4F1B96FC93CE
:1012C000EE931A9780818F5F8083E9CD80E08CCF89
:1012D00081E891E0DACD80E010CE80E016CE61109A
:1012E0003DCE2E812F5F2E83253008F460C089E526
:1012F00091E00E94470682E591E00E9432038091CE
:10130000F001882309F4DFC087E391E00E944706DB
:101310008EE391E00E9432036091EA017091EB014B
:101320008DE193E00E9408068091EF01882309F483
:10133000CDC08EE091E00E94470684E291E00E94D9
:1013400032036091E8017091E9018DE193E00E9420
:1013500008068091EE01882309F4BBC083EE90E07B
:101360000E9447068BEF90E00E9432036091E601F5
:101370007091E7018DE193E00E9408068091ED01F4
:10138000882309F4A9C08DEB90E00E944706809164
:10139000F001882309F4A3C085E990E00E94470684
:1013A0006FE371E08DE193E00E94AD051E828CE059
:1013B00090E00E945F146401270118013F813A8781
:1013C00025CD80E00E9476058AE691E00E944206E3
:1013D00081E00E9476056091EA017091EB0186EC54
:1013E00093E00E9408068091EF01882329F082E4AF
:1013F00091E00E94420675CF87E491E0FACF80E049
:101400000E94760588E791E00E94420681E00E94F2
:1014100076056091E8017091E90186EC93E00E9405
:10142000080641E06FED86EC93E00E945F0584E8DA
:1014300091E00E9442068091EE01882301F18BE445
:1014400091E0D7CF80E00E94760587E891E00E9486
:10145000420681E00E9476056091E6017091E70105
:1014600086EC93E00E94080680E991E00E94420623
:101470008091ED01882319F08FE491E0BACF88E4E0
:1014800091E0B7CF80E00E94760583E991E00E9469
:1014900042068091F001882351F083E591E00E949B
:1014A000420681E00E9476058AE991E0A2CF8AE5B2
:1014B00091E0F5CF83E691E077CD83E691E082CDB0
:1014C00083E691E096CF82E391E020CF86E091E041
:1014D00032CF89ED90E044CF83EB90E056CF87E7A1
:1014E00090E05CCF0F931F93CF93DF93E0912D0398
:1014F000F0912E0382E08083E0912903F0912A038A
:101500001082E0912B03F0912C038FEC80831092DA
:101510003503E0913103F091320386E08083E0915E
:101520002F03F0913003808180618083E0912F034D
:10153000F0913003808188608083E0912F03F091E7
:101540003003808180688083E0912F03F091300325
:1015500080818F7D808361E082E00E94A80161E04C
:1015600083E00E94A80161E084E00E94A80161E09C
:1015700088E00E94A80161E089E00E94A80161E082
:101580008AE00E94A80161E08DE00E94A80162E06B
:1015900085E00E94A80162E086E00E94A80162E066
:1015A00087E00E94A80162E08BE00E94A80162E04F
:1015B0008CE00E94A80160E082E00E947A0160E075
:1015C00083E00E947A0160E084E00E947A0160E09A
:1015D00088E00E947A0160E089E00E947A0160E080
:1015E0008AE00E947A0160E08DE00E947A01109208
:1015F0001A0210921902109290021092B2020E94E6
:10160000950384ED93E090933D0280933C0285ED39
:1016100093E090934102809340020E9495031092C0
:10162000CB038091D003823018F098E09093CB03E5
:101630008093CE0362E370E080E090E00E941002AD
:101640006091D10386EC93E00E945C0468EE73E045
:1016500080E090E00E94100260E386EC93E00E943C
:101660004605CBE4D6E4CE010197F1F760E386ECC2
:1016700093E00E9446052197F1F760E386EC93E042
:101680000E94460583E592E00197F1F760E286EC5F
:1016900093E00E9446056091CB03606240E086ECD7
:1016A00093E00E945F0584E08093CC0340E06CE00F
:1016B00086EC93E00E945F0540E061E086EC93E0F9
:1016C0000E945F05CBE3DFE1CE010197F1F782E0F5
:1016D0008093CD0340E066E086EC93E00E945F05D6
:1016E00040E062E086EC93E00E945F052197F1F70D
:1016F00088E08093D10360E086EC93E00E945C0474
:1017000080E00E9476058AE991E00E94420681E02D
:101710000E9476058CEB91E00E94420681E290E007
:101720000E943C16FC01009709F43FC0918380831E
:1017300081E0838F148E0FB6F8940F92808191818F
:10174000238D448DBC01249F600D711D1124758370
:101750006483128E938382832150330B429FB001A6
:10176000439F700D1124860F971F978386838FEFF9
:10177000858F868FCF010B96928781872FEF3FEF62
:101780003487238796878587908B8787108609966D
:10179000938B828B358B248B978B868B918F808F4D
:1017A000118A0F900FBE83E080A3F093F201E093C3
:1017B000F10110E000E023E048E550E06CEC71E05E
:1017C0008BEF9BE00E945A1622E040E450E063ED6C
:1017D00071E08FE896E00E945A1621E048E750E059
:1017E0006AED71E088EE96E00E945A16DF91CF9183
:1017F0001F910F910895CF93DF9300D000D01F92D7
:10180000CDB7DEB77724739411E04424439484E089
:10181000A82EB12C99E0692E25E0822E912C8BE028
:101820000E94510155245394009709F4512C11231F
:1018300009F45BC0892B09F058C08091F001842520
:101840008093F00160E082E00E947A0160E083E032
:101850000E947A0160E084E00E947A010091F10127
:101860001091F2011D821C8280E0780198E0E90E5F
:10187000F11C0FB6F8940F92D8015A962C915A97F2
:101880005B969C915B97291708F0FDC05A963C9097
:101890005A975C964C915C974111D9C08D919C915F
:1018A000892B11F080E00BC0F801E480F580E11491
:1018B000F10409F074C080E0F801158214823394B9
:1018C000D8015A963C925A9751969C91992321F0AF
:1018D000C80141960E94AE0F81110E948F110F9096
:1018E0000FBE8FE090E00E945F148CE00E945101D7
:1018F00011E0009709F410E0772019F1892B09F520
:101900008091EC0190E00196B4010E94A01A8093AE
:10191000EC0188E690E00E9432034091EC0150E037
:1019200070E060E02AE08DE193E00E94BC056FE387
:1019300071E08DE193E00E94AD058FE090E00E94A0
:101940005F146091F0018DE00E947A018091F001B6
:101950008823F1F085E00E94510161E0892B09F0B4
:1019600060E082E00E947A0186E00E94510161E01D
:10197000892B09F060E083E00E947A0187E00E94F1
:10198000510161E0892B09F060E084E00E947A0156
:1019900083E090E00E945F14712E152D40CFD70197
:1019A0009C968C919C9781509C968C939C97569674
:1019B0002C9156979B969C91291709F47CCF811105
:1019C0007ACF6701B2E0CB0ED11CC6010E94A610EF
:1019D000F70183A5868B282F30E0A501421B530B0E
:1019E0005587448790911703981710F48093170335
:1019F000629EF001639EF00D1124ED50FD4F0180B9
:101A0000F281E02DD7011596FC93EE931497848113
:101A1000958117969C938E931697A481B581139602
:101A2000DC92CE921297D582C482D7015696EC9161
:101A30005697E69DF0011124ED50FD4F1B96FC9347
:101A4000EE931A9780818F5F808381E035CF50E0DD
:101A500070E060E012968D919C910E94D51AF80179
:101A6000848D22813381820F932F911D93838283F2
:101A7000248135818217930708F414CF80819181E6
:101A8000938382830FCF2C813D81232B09F427CFB1
:101A9000811109C08091F70189838091B5029091ED
:101AA000B6029B838A830F900FBE0E9453100FB61D
:101AB000F8940F92F801858D8F3F09F4158ED801A7
:101AC0005E968C915E978F3F11F45E961C920F90FC
:101AD0000FBEBE016C5F7F4FCE0101960E947B0F4F
:101AE00081112AC00FB6F8940F92F801928D838D60
:101AF0000F900FBE98131AC0CC80DD8060911A033E
:101B000070911B03645F7F4FC7010E94C91061E0A1
:101B1000C6010E94FF10C8010E9464100E944F126B
:101B2000811102C00E948F1181E0A3CEC8010E94E2
:101B300064100E944F12F8CFC8010E9464100E94E6
:101B40004F12CFCE1F920F920FB60F9211242F93E8
:101B50003F938F939F93AF93BF938091BA029091DD
:101B6000BB02A091BC02B091BD023091B90223E04A
:101B7000230F2D3758F50196A11DB11D2093B902F1
:101B80008093BA029093BB02A093BC02B093BD02B3
:101B90008091BE029091BF02A091C002B091C1029B
:101BA0000196A11DB11D8093BE029093BF02A09328
:101BB000C002B093C102BF91AF919F918F913F91AD
:101BC0002F910F900FBE0F901F90189526E8230FAE
:101BD0000296A11DB11DD2CF1F920F920FB60F9288
:101BE00011242F933F934F935F936F937F938F9322
:101BF0009F93AF93BF93EF93FF938DE193E00E9488
:101C0000C302FF91EF91BF91AF919F918F917F910F
:101C10006F915F914F913F912F910F900FBE0F9059
:101C20001F9018951F920F920FB60F9211242F93A9
:101C30008F939F93EF93FF93E0912D03F0912E03E9
:101C40008081E0913303F091340382FD1BC09081C9
:101C5000809136038F5F8F7320913703821741F095
:101C6000E0913603F0E0E35EFC4F958F80933603FE
:101C7000FF91EF919F918F912F910F900FBE0F9039
:101C80001F9018958081F4CF1F920F920FB60F927C
:101C900011242F933F934F935F936F937F938F9371
:101CA0009F93AF93BF93EF93FF938091B900887F89
:101CB000803609F44AC0F0F5883209F4A7C018F557
:101CC000803109F49BC0B8F4882309F4F9C0883046
:101CD00009F494C0FF91EF91BF91AF919F918F91C3
:101CE0007F916F915F914F913F912F910F900FBE18
:101CF0000F901F901895883109F488C0803251F7F1
:101D00008093870214C0803409F49DC040F480336E
:101D1000B9F38833F9F68093870285ECB0C080353B
:101D200009F485C0883509F496C0883499F60E9474
:101D30005706D0CF883909F48CC038F5883729F098
:101D400050F4883611F0803729F683E080938902B9
:101D50001092620257C0883809F47BC0803919F0AC
:101D6000803809F0B7CF80916202803208F071C0EC
:101D7000E091620281E08E0F809362028091BB004D
:101D8000F0E0EE5BFD4F80833DC0803B39F0E0F436
:101D9000803A09F479C0883A09F09CCF84E08093B6
:101DA000890210923F0210923E02E0913C02F091B3
:101DB0003D02099580913E0281110FC081E0809320
:101DC0003E0210921C0209C0803C09F4A6CF883C58
:101DD00009F4A3CF883B09F07DCFE0913F0281E079
:101DE0008E0F80933F02F0E0E45EFD4F8081809390
:101DF000BB0090913F0280913E0229C08091640215
:101E00008093BB0085EC8093BC0064CF90918602E8
:101E100080918502981758F5E091860281E08E0F37
:101E200080938602F0E0EB59FD4F8081E9CFE0918D
:101E3000860281E08E0F809386028091BB00F0E0E5
:101E4000EB59FD4F8083909186028091850298170F
:101E5000C8F285E8D8CFE091860281E08E0F8093AA
:101E600086028091BB00F0E0EB59FD4F80838091AA
:101E7000880281115CCF81E08093630284EA8093C1
:101E8000BC001092890226CF85EC8093BC00109292
:101E9000890280916202803230F4E0916202F0E0C7
:101EA000EE5BFD4F10826091620270E0E0914002B3
:101EB000F091410282E492E00995109262020ACF09
:101EC0001092870234CFE091C402F091C502808164
:101ED000811107C08FEF9FEF9093B8028093B702F4
:101EE0000895E091C402F091C5020580F681E02DCD
:101EF00080819181F1CFFC01DB010FB6F8940F9244
:101F00004091B5025091B6022D913C9111972F3F0F
:101F1000320711F1818192816091F701708176170A
:101F200049F04817590730F01D921C9281E00F903C
:101F30000FBE0895481B590B42175307A8F7241BDF
:101F4000350B2D933C938091F70180838091B502EE
:101F50009091B6029283818380E0E9CFCF93DF93A3
:101F6000DC011596ED91FC910680F781E02DA489A6
:101F7000B5898685978520893189EC013D832C833D
:101F8000C089D1899B838A83CF010C9611962D91AC
:101F90003C9112972817390721F41296DC93CE93BF
:101FA0001197158A148A2C9121502C932091F601B7
:101FB000211157C0A285B3858481958126813781FF
:101FC000EC013D832C83C681D7819B838A83CF011B
:101FD000029611962D913C9112972817390721F4FA
:101FE0001296DC93CE931197138612862C91215072
:101FF0002C93C689209117032C1710F4C093170354
:1020000029E02C9FE0011124CD50DD4F0980DA81B9
:10201000C02DD583C4834C815D8157834683AC81B9
:10202000BD8113969C938E9312979D838C83A68972
:10203000A29FD0011124AD50BD4FB387A2878C91D0
:102040008F5F8C93A0911A03B0911B0396895696CB
:102050008C91891730F581E08093F501DF91CF9164
:102060000895A091D902B091DA02B787A687149695
:102070002D913C911597318B208B1496CD91DC914D
:1020800015979B838A8315969C938E93149788ED5E
:1020900092E0958B848B8091D8028F5F8093D802D9
:1020A000D1CF80E0DBCF8091F6018F5F8093F60186
:1020B00008950FB6F8940F92FC01928D0F900FBE09
:1020C00081E0911180E00895EF92FF920F931F93AA
:1020D000CF93DF93EC010FB6F8940F921E8D7C0125
:1020E00081E1E80EF11C01E01116D4F08FEF8E8F24
:1020F0000F900FBE0FB6F8940F921D8D7E0188E0F1
:10210000E80EF11C01E01116B4F08FEF8D8F0F90E7
:102110000FBEDF91CF911F910F91FF90EF90089527
:102120008989882319F3C7010E94AE0F811100939A
:10213000F5011150D9CF8885882339F3C7010E9452
:10214000AE0F81110093F5011150DDCFCF93DF93D6
:10215000FC01A085B1858281938124813581EC01C8
:102160003D832C83C481D5819B838A8311968D9175
:102170009C9112978E179F0721F41296DC93CE93B1
:102180001197118610868C9181508C93DF91CF919D
:1021900008950F931F93CF93DF938C01FB018081F0
:1021A0009181D80113968F3F9807F1F4E801AF8130
:1021B000B88512968D919C91139793838283EC013D
:1021C000FD83EC83B583A4831396FC93EE9312975F
:1021D00011870087F80180818F5F8083DF91CF9125
:1021E0001F910F910895D90112962D913C9113974B
:1021F000E9014881598184179507A8F7DACFBF9282
:10220000CF92DF92EF92FF920F931F93CF93DF93C2
:10221000EC01B62EC090B502D090B6020091C40277
:102220001091C502E090C202F090C30280911A039F
:1022300090911B0302960E94A610CF3FDC0709F085
:1022400042C0BB2009F43FC0E091C702F091C80230
:10225000A0911A03B0911B031596FC93EE9314976B
:10226000A0911A03B0911B038481958117969C93CA
:102270008E93169780911A0390911B03A481B581C8
:10228000029613969C938E93129780911A039091C5
:102290001B03029695838483E0911A03F0911B033C
:1022A00086EC92E0938782878091C6028F5F80934D
:1022B000C602DF91CF911F910F91FF90EF90DF90B9
:1022C000CF90BF900895CC0DDD1DE0911A03F091E1
:1022D0001B03D383C28360911A0370911B036E5F4B
:1022E0007F4FCC15DD0560F4C701DF91CF911F91C1
:1022F0000F91FF90EF90DF90CF90BF900C94C9109A
:10230000C8010E94C9108091B7029091B802C81705
:10231000D90778F6D093B802C093B702CACF0F920C
:102320000FB6F8940F921F9211242F923F924F9262
:102330005F926F927F928F929F92AF92BF92CF9255
:10234000DF92EF92FF920F931F932F933F934F9340
:102350005F936F937F938F939F93AF93BF93CF932D
:10236000DF93EF93FF93A0911A03B0911B030DB677
:102370000D920EB60D928091F601882321F081E036
:102380008093F50161C01092F501A0911A03B091FC
:102390001B03E0911A03F0911B032D913C91878957
:1023A000908D82179307A8F080911A0390911B03D8
:1023B00080911A0390911B03259A2D9A2FEF87EA9B
:1023C00091E6215080409040E1F700C000001D9A46
:1023D000F5CF2091170389E001C02150422F50E032
:1023E000849FF001859FF00D1124ED50FD4F9081E9
:1023F000992399F3A181B28112966D917C91728398
:102400006183289FC00111248A509D4F6817790766
:1024100021F4858196819283818389E0849FF001F4
:10242000859FF00D1124ED50FD4F0180F281E02DCC
:102430008681978190931B0380931A03209317033F
:1024400080911A0390911B03A0911A03B0911B0372
:10245000CD91CDBFDD91DEBFFF91EF91DF91CF91A7
:10246000BF91AF919F918F917F916F915F914F91AC
:102470003F912F911F910F91FF90EF90DF90CF90A0
:10248000BF90AF909F908F907F906F905F904F9094
:102490003F902F901F900F900FBE0F9008958F9236
:1024A0009F92BF92CF92DF92EF92FF920F931F9372
:1024B000CF93DF930FB6F8940F928091F60181507D
:1024C0008093F6018091F601882379F080E00F90E7
:1024D0000FBEDF91CF911F910F91FF90EF90DF9092
:1024E000CF90BF909F908F90089580911C03882378
:1024F00069F3E090DD02F090DE02F0E0E0E039E028
:1025000041E08091D80281115EC0EF2B11F00E9452
:10251000630FE090F301F090F401E114F10409F489
:102520007DC189E0D82ECC24C3940FEF1FEF80919A
:10253000F601811161C1C091B502D091B6024E0180
:102540008FEF881A980A9092B6028092B502811491
:102550009104B9F48091C4029091C5022091C20205
:102560003091C3023093C5022093C4029093C302FA
:102570008093C2028091F7018F5F8093F7010E94E0
:10258000630F8091B7029091B802B12C881699061A
:1025900008F026C1E0911A03F0911B03E689DE9E44
:1025A000F0011124ED50FD4F8081823010F0BB24EA
:1025B000B3948091F501811103C0BB2009F425C1BA
:1025C000C092F50122C1D7011696ED91FC91A48924
:1025D000B5896685778580899189EB019D838C8398
:1025E00080899189EC017B836A83BF01645F7F4F9F
:1025F00011960D911C9112970617170721F4129648
:102600009C938E931197158A148A8C9181508C9388
:10261000A285B3858481958166817781EC017D8374
:102620006C8366817781EB019B838A83CF0102965D
:1026300011960D911C9112970817190721F4129603
:102640007C936E931197138612862C9121502C93B4
:10265000A689209117032A1710F4A09317033A9F15
:10266000D0011124AD50BD4F11960D90BC91A02DFD
:10267000B583A48314966D917C91159777836683B7
:1026800014966D917C911597EB019B838A83159627
:102690009C938E9314979689939FD0011124AD50EB
:1026A000BD4FB387A2878C918F5F8C93A0911A0343
:1026B000B0911B0356968C91891708F022CF409356
:1026C000F5011FCFE091C402F091C5020580F681AB
:1026D000E02D0680F781E02D82819381881699068E
:1026E00028F49093B8028093B70254CFC285D38563
:1026F0008481958126813781DC0115963C932E9348
:10270000149726813781D90113969C938E93129743
:10271000CF01029649815A814817590711F43A832B
:10272000298313861286288121502883A489B5899C
:102730001097F9F02685378540895189E9015D8335
:102740004C8340895189EA013B832A8311966D911C
:102750007C9112979F01245F3F4F6217730721F40A
:1027600012965C934E931197158A148A2C912150DE
:102770002C93A689209117032A1710F4A09317030E
:10278000DA9ED0011124AD50BD4F11960D90BC9131
:10279000A02DB583A48314962D913C911597378372
:1027A000268314962D913C911597E9019B838A838A
:1027B00015969C938E93149796899D9DD001112414
:1027C000AD50BD4FB387A2878C918F5F8C93E09102
:1027D0001A03F0911B038689891710F4BB24B39464
:1027E000E091C402F091C502808181116BCF1093FA
:1027F000B8020093B702CECE8091F3019091F4011C
:1028000001969093F4018093F301D1E0ED1AF10861
:1028100009F08DCE1092F4011092F3018091F50130
:10282000882309F453CE80911A0390911B030E94D0
:102830008F1181E04CCE80E0E82E80E0F82E809170
:10284000F80181110CC08091F302823010F00E94D7
:102850008F11E114F10499F30E94B602F0CF0FB684
:10286000F8940F92E091D402F091D502C681D781FD
:10287000CE0102960E94A61080911C038150809385
:102880001C038091F80181508093F8010F900FBED6
:102890000F89188D0115110539F00E945310C801D8
:1028A0000E94C7190E944F12209709F4C8CF0E94B6
:1028B0005310CE010E94C7190E944F12C0CFCF9370
:1028C000DF93EC010E94531060E0CE010E94FF10E4
:1028D0000E944F12811102C00E948F11DF91CF918F
:1028E00008950F920FB6F8940F921F9211242F9211
:1028F0003F924F925F926F927F928F929F92AF9290
:10290000BF92CF92DF92EF92FF920F931F932F937C
:102910003F934F935F936F937F938F939F93AF9367
:10292000BF93CF93DF93EF93FF93A0911A03B091DE
:102930001B030DB60D920EB60D9213BE8091F601DB
:102940008111F9C08091B5029091B60201969093E1
:10295000B6028093B502009781F52091C4023091B0
:10296000C5024091C2025091C3025093C5024093E8
:10297000C4023093C3022093C2022091F7012F5F5B
:102980002093F701E091C402F091C502208121114A
:1029900007C02FEF3FEF3093B8022093B7020DC06E
:1029A000E091C402F091C5020580F681E02D2081FE
:1029B00031813093B8022093B7022091B702309151
:1029C000B8028217930710F420E0A1C020E039E09C
:1029D000D32EE091C402F091C5023081311107C0BD
:1029E0008FEF9FEF9093B8028093B70290C0E09171
:1029F000C402F091C5020580F681E02D0680F781C2
:102A0000E02D428153818417950728F45093B80232
:102A10004093B7027CC0A285B3854481558166810D
:102A20007781EA017D836C8366817781EB015B832B
:102A30004A83AF014E5F5F4F11960D911C91129723
:102A40000417150721F412967C936E931197138641
:102A500012863C9131503C93A489B5891097F9F0C6
:102A60006685778500891189EB011D830C830089B8
:102A70001189E8017B836A831196ED90FC9012978F
:102A8000BF01645F7F4FE616F70621F412961C9390
:102A90000E931197158A148A3C9131503C93A68964
:102AA000309117033A1710F4A0931703DA9ED00160
:102AB0001124AD50BD4F11960D90BC91A02DB58342
:102AC000A48314966D917C911597778366831496F1
:102AD0006D917C911597EB015B834A8315965C930E
:102AE0004E93149746894D9DD0011124AD50BD4F92
:102AF000B387A2873C913F5F3C93E0911A03F0912A
:102B00001B033689341708F064CF21E062CFE091CF
:102B10001A03F0911B03E689D9E0ED9FF00111241F
:102B2000ED50FD4F8081823008F021E08091F50169
:102B300081110EC00AC08091F3019091F4010196B9
:102B40009093F4018093F3016CC0222309F469C0CF
:102B50008091F601882321F081E08093F50161C026
:102B60001092F501A0911A03B0911B03E0911A0392
:102B7000F0911B032D913C918789908D82179307CB
:102B8000A8F080911A0390911B0380911A039091F1
:102B90001B03259A2D9A2FEF87EA91E6215080405A
:102BA0009040E1F700C000001D9AF5CF2091170377
:102BB00089E001C02150422F50E0849FF001859FA1
:102BC000F00D1124ED50FD4F9081992399F3A181CF
:102BD000B28112966D917C9172836183289FC001AE
:102BE00011248A509D4F6817790721F485819681B9
:102BF0009283818389E0849FF001859FF00D1124E9
:102C0000ED50FD4F0180F281E02D868197819093F8
:102C10001B0380931A032093170380911A0390914A
:102C20001B03A0911A03B0911B03CD91CDBFDD9181
:102C3000DEBFFF91EF91DF91CF91BF91AF919F9157
:102C40008F917F916F915F914F913F912F911F9144
:102C50000F91FF90EF90DF90CF90BF90AF909F903B
:102C60008F907F906F905F904F903F902F901F902C
:102C70000F900FBE0F900895CF93DF93EC010E9449
:102C80005310CE010E942B19EC010E944F12209785
:102C900069F4259A2D9A2FEF80E792E02150804029
:102CA0009040E1F700C000001D9AF5CFCE01DF9102
:102CB000CF9108957F928F929F92AF92BF92CF92C1
:102CC000DF92EF92FF920F931F93CF93DF93982E93
:102CD000A92E762E872E7A01B22ECA010E943C16AA
:102CE0006C01892B09F485C182E390E00E943C16B7
:102CF000EC01892B09F476C182E3DE011D928A95ED
:102D0000E9F7D88ECF8AA70165EA70E0C6010E9474
:102D1000DE1AB1E0EB1AF108EF89F88DEE0DFF1D18
:102D2000672D782DCE0149969B01205F3F4FDB0137
:102D30004D91BD01DC014D93CD01AB0141505109D5
:102D4000DA014C91442319F06217730781F718A632
:102D5000BE8ABBA61B861A861D8A1C8AD987C8878D
:102D600084E090E08B1991099D878C87DB8BCA8B5F
:102D70009082DF011197AC9211971C92119780E815
:102D80008C9311971C9257971C9211971C92B39792
:102D9000F983E8830115110519F0F801D183C08387
:102DA0000FB6F8940F9280911C038F5F80931C03E1
:102DB00080911A0390911B03892B09F029C1D093AC
:102DC0001B03C0931A0380911C03813009F0C2C019
:102DD00026EF32E03093F5022093F4028FEF9FEF5D
:102DE0009093F7028093F6023093F9022093F80251
:102DF0003093FB022093FA021092F3022FEF32E09D
:102E00003093FE022093FD02909300038093FF0213
:102E100030930203209301033093040320930303B0
:102E20001092FC0228E033E030930703209306035E
:102E3000909309038093080330930B0320930A03B4
:102E400030930D0320930C031092050321E133E02E
:102E50003093100320930F03909312038093110378
:102E60003093140320931303309316032093150318
:102E700010920E032DEE32E03093EC022093EB0221
:102E80009093EE028093ED023093F0022093EF02D4
:102E90003093F2022093F1021092EA0224EE32E023
:102EA0003093E3022093E2029093E5028093E402E0
:102EB0003093E7022093E6023093E9022093E80280
:102EC0001092E1022BED32E03093DA022093D90226
:102ED0009093DC028093DB023093DE022093DD02CC
:102EE0003093E0022093DF021092D80222ED32E00C
:102EF0003093D1022093D0029093D3028093D202D8
:102F00003093D5022093D4023093D7022093D60277
:102F10001092CF0229EC32E03093C8022093C7020E
:102F20009093CA028093C9023093CC022093CB02C3
:102F30003093CE022093CD021092C6028AEE92E028
:102F40009093C5028093C40281EE92E09093C302F5
:102F50008093C202809118038F5F8093180389A722
:102F6000AE89809117038A1710F4A093170329E004
:102F70002A9FD0011124AD50BD4F11960D90BC91E8
:102F8000A02DBD83AC8314968D919C9115979F8342
:102F90008E831496ED91FC911597CE010296938342
:102FA000828315969C938E931497EE89E29FF0018D
:102FB0001124ED50FD4FFB87EA8780818F5F80836E
:102FC0000F900FBE80911903882351F0E0911A03EE
:102FD000F0911B0396898E89981710F40E948F1127
:102FE00081E008C00E945310C6010E94C7190E94C8
:102FF0004F128FEFDF91CF911F910F91FF90EF90C4
:10300000DF90CF90BF90AF909F908F907F9008956A
:103010008091190381119ECFE0911A03F0911B0357
:1030200096898E89891708F495CFD0931B03C09396
:103030001A0390CF0E9471141895EDE1F3E013820A
:10304000128288EE93E0A0E0B0E084839583A683AB
:10305000B78323E131E03183208325EC30E03587ED
:10306000248724EC30E03787268720EC30E0318B52
:10307000208B21EC30E0338B228B22EC30E0358B3F
:10308000248B26EC30E0378B268B118E128E138E1C
:10309000148EEAEBF3E01382128284839583A68375
:1030A000B78385E291E091838083E6ECF3E01382BD
:1030B000128287E391E09183808387E2848380E1B9
:1030C000818782E0828713860895CF93DF93CDB7FF
:1030D000DEB760970FB6F894DEBF0FBECDBF789411
:1030E00084B5826084BD84B5816084BD85B582600D
:1030F00085BD85B5816085BD80916E0081608093BE
:103100006E00109281008091810082608093810026
:103110008091810081608093810080918000816036
:10312000809380008091B10084608093B100809191
:10313000B00081608093B00080917A0084608093B9
:103140007A0080917A00826080937A0080917A0080
:10315000816080937A0080917A00806880937A0001
:103160001092C10020910501309106018FEF98E087
:10317000821B930B90930201809301010E94720ABB
:10318000AFEDB1E0FE013196BF018D9181938823AF
:1031900021F081E0AF3EB807C1F703EB12E020E079
:1031A00044E650E08BE194E10E945A16882309F42A
:1031B00046C0813009F043C0F8942FEF3FEF3093C1
:1031C000B8022093B702809319031092B6021092AE
:1031D000B502A89588E190EC0FB6F894A895809375
:1031E00060000FBE90936000A0911A03B0911B0382
:1031F000CD91CDBFDD91DEBFFF91EF91DF91CF91FA
:10320000BF91AF919F918F917F916F915F914F91FE
:103210003F912F911F910F91FF90EF90DF90CF90F2
:10322000BF90AF909F908F907F906F905F904F90E6
:103230003F902F901F900F900FBE0F900895809198
:1032400000010E94720A00E010E001151105E9F387
:103250000E94B602FACF0F931F93CF93DF93823071
:10326000910510F482E090E0E091D403F091D50351
:1032700030E020E0B0E0A0E0309799F4211531056E
:1032800009F44AC0281B390B24303105D8F58A814E
:103290009B816115710589F1FB0193838283FE0196
:1032A00011C0408151810281138148175907E0F014
:1032B0004817590799F4109761F012960C931297DA
:1032C00013961C933296CF01DF91CF911F910F91EE
:1032D00008950093D4031093D503F4CF211531053D
:1032E00051F04217530738F0A901DB019A01BD01E3
:1032F000DF01F801C1CFEF01F9CF9093D50380939F
:10330000D403CDCFFE01E20FF31F8193919322509E
:10331000310939832883D7CF2091D2033091D30349
:10332000232B41F420910301309104013093D30306
:103330002093D20320910101309102012115310522
:1033400041F42DB73EB74091050150910601241B71
:10335000350BE091D203F091D303E217F307A0F409
:103360002E1B3F0B2817390778F0AC014E5F5F4FDB
:103370002417350748F04E0F5F1F5093D303409337
:10338000D203819391939FCFF0E0E0E09CCFCF9365
:10339000DF930097E9F0FC01329713821282A0912B
:1033A000D403B091D503ED0130E020E01097A1F4F3
:1033B00020813181820F931F2091D2033091D3035A
:1033C0002817390709F061C0F093D303E093D203C3
:1033D000DF91CF910895EA01CE17DF07E8F54A8122
:1033E0005B819E0141155105B1F7E901FB83EA8339
:1033F00049915991C40FD51FEC17FD0761F48081E5
:1034000091810296840F951FE901998388838281B7
:1034100093819B838A83F0E0E0E012968D919C91EA
:1034200013970097B9F52D913C911197CD01029614
:10343000820F931F2091D2033091D30328173907AD
:1034400039F6309751F51092D5031092D403B0930A
:10345000D303A093D203BCCFD383C28340815181D5
:10346000840F951FC817D90761F44E5F5F4F88819D
:103470009981480F591F518340838A819B8193838F
:1034800082832115310509F0B0CFF093D503E09385
:10349000D4039ECFFD01DC01C0CF13821282D7CFAF
:1034A000052E97FB1EF400940E94671A57FD07D063
:1034B0000E946F1A07FC03D04EF40C94671A5095C3
:1034C0004095309521953F4F4F4F5F4F0895909510
:1034D0008095709561957F4F8F4F9F4F0895A1E222
:1034E0001A2EAA1BBB1BFD010DC0AA1FBB1FEE1F7E
:1034F000FF1FA217B307E407F50720F0A21BB30BC9
:10350000E40BF50B661F771F881F991F1A9469F744
:1035100060957095809590959B01AC01BD01CF01A0
:103520000895A29FB001B39FC001A39F700D811D9C
:103530001124911DB29F700D811D1124911D0895BC
:1035400097FB072E16F4009407D077FD09D00E9450
:10355000BB1A07FC05D03EF4909581959F4F0895C6
:10356000709561957F4F08950E94911AB7FF089555
:10357000821B930B0895AA1BBB1B51E107C0AA1F16
:10358000BB1FA617B70710F0A61BB70B881F991F04
:103590005A95A9F780959095BC01CD010895EE0F3D
:1035A000FF1F0590F491E02D0994FB01DC0102C09E
:1035B00001900D9241505040D8F70895DC0101C0B0
:1035C0006D9341505040E0F70895F894FFCF030009
:1035D00000D60380000000400014005400000000EA
:1035E00000E50242026F024D03A0027E0292020039
:1035F0000000002D0400044305D603F903E603D7B9
:103600000300000000A705420243056D030D0A00F8
:103610002044525900204F4B00484F54004C4F5704
:10362000004D414E55414C004155544F004F4E20E6
:10363000004F4646004F4E00536F696C204D6F6936
:1036400073747572650054656D706572617475721E
:10365000650043200048756D696469747900252010
:10366000004D6F64653A2000506C616E74204361B8
:103670007265205379730050756D703A0020466171
:103680006E3A004C696768743A00496E6974696102
:103690006C697A696E672E2E2E004D616E75616CB5
:1036A0000053656E736F72004175746F0049444C2E
:0236B0004500D3
:107E0000112484B714BE81FFF0D085E080938100F7
:107E100082E08093C00088E18093C10086E0809377
:107E2000C20080E18093C4008EE0C9D0259A86E02C
:107E300020E33CEF91E0309385002093840096BBD3
:107E4000B09BFECF1D9AA8958150A9F7CC24DD24C4
:107E500088248394B5E0AB2EA1E19A2EF3E0BF2EE7
:107E6000A2D0813461F49FD0082FAFD0023811F036
:107E7000013811F484E001C083E08DD089C08234E0
:107E800011F484E103C0853419F485E0A6D080C0E4
:107E9000853579F488D0E82EFF2485D0082F10E0AE
:107EA000102F00270E291F29000F111F8ED06801E7
:107EB0006FC0863521F484E090D080E0DECF843638
:107EC00009F040C070D06FD0082F6DD080E0C81688
:107ED00080E7D80618F4F601B7BEE895C0E0D1E017
:107EE00062D089930C17E1F7F0E0CF16F0E7DF06D8
:107EF00018F0F601B7BEE89568D007B600FCFDCFD4
:107F0000A601A0E0B1E02C9130E011968C91119780
:107F100090E0982F8827822B932B1296FA010C0160
:107F200087BEE89511244E5F5F4FF1E0A038BF0790
:107F300051F7F601A7BEE89507B600FCFDCF97BE46
:107F4000E89526C08437B1F42ED02DD0F82E2BD052
:107F50003CD0F601EF2C8F010F5F1F4F84911BD097
:107F6000EA94F801C1F70894C11CD11CFA94CF0C13
:107F7000D11C0EC0853739F428D08EE10CD085E9AC
:107F80000AD08FE07ACF813511F488E018D01DD067
:107F900080E101D065CF982F8091C00085FFFCCF94
:107FA0009093C60008958091C00087FFFCCF809118
:107FB000C00084FD01C0A8958091C6000895E0E648
:107FC000F0E098E1908380830895EDDF803219F02E
:107FD00088E0F5DFFFCF84E1DECF1F93182FE3DFCA
:107FE0001150E9F7F2DF1F91089580E0E8DFEE27F6
:047FF000FF270994CA
:027FFE00040479
:00000001FF
