:100000000C94FE000C9426010C9426010C942601FD
:100010000C9426010C9426010C941C160C942601B9
:100020000C9426010C9426010C9426010C942601B4
:100030000C9426010C9426010C9426010C942601A4
:100040000C94460A0C9426010C94B60A0C94900A5F
:100050000C9426010C9426010C9426010C94260184
:100060000C94E80A0C942601446973706C61792041
:100070006D6F64653A20004155544F004D414E5517
:10008000414C004D6F6465206368616E6765642054
:10009000746F3A20004175746F20616374756174E8
:1000A0006F7220636F6E74726F6C3A2041435449D3
:1000B0005645004175746F206163747561746F7289
:1000C00020636F6E74726F6C3A20504155534544F3
:1000D00000202520202D3E204F4B00202520202DC4
:1000E0003E204C4F572C2048756D69646974792007
:1000F0004C4544204F4E00204320202D3E204F4BA6
:1001000000204320202D3E20484F542C2054656D64
:1001100070204C4544204F4E0048756D69646974E9
:10012000793A200020202D3E204F4B0020202D3EEC
:10013000204452592C20536F696C204C4544204F69
:100140004E0054656D70657261747572653A200079
:100150004155544F004D414E55414C00536F696C11
:10016000204D6F697374757265205261773A200073
:100170004D6F64653A20003D3D3D3D3D3D3D3D3D7B
:100180003D20504C414E5420434152452053595339
:1001900054454D203D3D3D3D3D3D3D3D3D3D0000F7
:1001A000000000240027002A00000000002500288D
:1001B000002B000000000023002600290004040496
:1001C0000404040404020202020202030303030300
:1001D00003010204081020408001020408102001DD
:1001E00002040810200000000800020100000304BF
:1001F000070000000000000000001F1611241FBEB1
:10020000CFEFD8E0DEBFCDBF11E0A0E0B1E0E8EB7A
:10021000F2E302C005900D92A43EB107D9F723E0A6
:10022000A4EEB1E001C01D92A03FB207E1F710E0DB
:10023000CEEFD0E004C02197FE010E942919CD3FE6
:10024000D107C9F70E9467160C945A190C94000044
:10025000833081F028F4813099F08230A9F008953C
:100260008730A9F08830C9F08430B1F480918000E3
:100270008F7D03C0809180008F77809380000895E8
:1002800084B58F7784BD089584B58F7DFBCF809131
:10029000B0008F778093B00008958091B0008F7D7B
:1002A000F9CFCF93DF93282F30E0F901EB51FE4FC8
:1002B0008491F901EF52FE4FD491F901E354FE4FBE
:1002C000C491CC23A1F081110E942801EC2FF0E011
:1002D000EE0FFF1FED54FE4FA591B491EC91ED236D
:1002E00081E090E009F480E0DF91CF91089580E013
:1002F00090E0FACF1F93CF93DF93282F30E0F901DE
:10030000EB51FE4F8491F901EF52FE4FD491F90168
:10031000E354FE4FC491CC23A9F0162F81110E9403
:100320002801EC2FF0E0EE0FFF1FE755FE4FA591DF
:10033000B4918FB7F894EC91111108C0D095DE23D9
:10034000DC938FBFDF91CF911F910895DE2BF8CF03
:10035000CF93DF9390E0FC01EF52FE4F2491835442
:100360009E4FFC0184918823D1F090E0880F991F63
:10037000FC01E156FE4FA591B491FC01E755FE4FFB
:10038000C591D491623071F49FB7F8943C91822F5B
:10039000809583238C93E8812E2B28839FBFDF9148
:1003A000CF9108958FB7F894EC912E2B2C938FBF9B
:1003B000F6CF8E50806480937C0080917A008064B8
:1003C00080937A0080917A0086FDFCCF809178003E
:1003D0009091790008953FB7F894809133039091FC
:1003E0003403A0913503B091360326B5A89B05C010
:1003F0002F3F19F00196A11DB11D3FBFBA2FA92FA4
:10040000982F8827BC01CD01620F711D811D911DA0
:1004100042E0660F771F881F991F4A95D1F708950C
:100420008F929F92AF92BF92CF92DF92EF92FF9204
:100430004B015C010E94EB016B017C010E94EB010E
:100440006C197D098E099F09683E734081059105ED
:10045000A8F321E0821A9108A108B10888EEC80E1D
:1004600083E0D81EE11CF11C81149104A104B104A5
:1004700029F7FF90EF90DF90CF90BF90AF909F90C3
:100480008F900895AF92BF92CF92DF92EF92FF923A
:100490000F931F93CF93DF936C017B018B01040FAC
:1004A000151FEB015E01AE18BF08C017D10759F048
:1004B0006991D601ED91FC910190F081E02DC6018A
:1004C0000995892B79F7C501DF91CF911F910F9184
:1004D000FF90EF90DF90CF90BF90AF900895FC0118
:1004E000538D448D252F30E0842F90E0821B930B99
:1004F000541710F0CF96089501970895FC01918D3F
:10050000828D981761F0A28DAE0FBF2FB11D5D9641
:100510008C91928D9F5F9F73928F90E008958FEFE3
:100520009FEF0895FC01918D828D981731F0828D97
:10053000E80FF11D858D90E008958FEF9FEF0895EE
:10054000FC01918D228D892F90E0805C9F4F821B52
:1005500091098F739927089587E393E00E94A00281
:1005600021E0892B09F420E0822F08950E94AC023B
:1005700081110C940000089580E090E0892B11F027
:100580000C94B6020895FC01A48DA80FB92FB11DDB
:10059000A35ABF4F2C91848D90E001968F739927B9
:1005A000848FA689B7892C93A089B1898C91837097
:1005B00080648C93938D848D981306C00288F38990
:1005C000E02D80818F7D80830895EF92FF920F93BD
:1005D0001F93CF93DF93EC0181E0888F9B8D8C8DEF
:1005E00098131AC0E889F989808185FF15C09FB7E3
:1005F000F894EE89FF896083E889F98980818370A6
:10060000806480839FBF81E090E0DF91CF911F9154
:100610000F91FF90EF900895F62E0B8D10E00F5F75
:100620001F4F0F731127E02E8C8D8E110CC00FB64B
:1006300007FCFACFE889F989808185FFF5CFCE01E3
:100640000E94C302F1CFEB8DEC0FFD2FF11DE35A99
:10065000FF4FF0829FB7F8940B8FEA89FB89808166
:100660008062CFCF0F931F93CF93DF938C01D0E0A5
:10067000C0E0F801EC0FFD1F6491662341F087E3B1
:1006800093E00E94E502892B11F02196F2CFCE0172
:10069000DF91CF911F910F910895CF93DF93EC01DC
:1006A000888D8823B9F0AA89BB89E889F9898C915A
:1006B00085FD03C0808186FD0DC00FB607FCF7CF16
:1006C0008C9185FFF2CF808185FFEDCFCE010E9416
:1006D000C302E9CFDF91CF91089508952091980248
:1006E000260F3327331F21323105ECF42091E3022A
:1006F000FC0190E080E0243069F082E00895A09150
:1007000098022191AC014A585D4FA40FB52FB11D3D
:100710002C930196861798F380919802680F609346
:10072000980280E0089581E008951092E30281E04C
:100730008093E2021092BD0261E082E10E947A01A0
:1007400061E083E10E947A01E9EBF0E080818E7F35
:10075000808380818D7F808388E48093B80085E4E6
:100760008093BC000895CF93DF9391E0909375023E
:100770008823B9F0C091B800D091BA008091BC0034
:100780008A7B8093BC0060E082E10E947A0160E095
:1007900083E10E947A010E949503D093BA00C0932E
:1007A000B800DF91CF910895089508950895E091DC
:1007B000740280917302E81730F4F0E0ED5AFD4FB7
:1007C000808190E008958FEF9FEF089590917402DB
:1007D000809173022FEF3FEF981748F4E92FF0E074
:1007E000ED5AFD4F208130E09F5F90937402C90164
:1007F00008958091730290917402891B990B08955A
:10080000CF92DF92EF92FF920F931F93CF93DF93DC
:100810007C01CB018A012091E902222389F0EB01BE
:100820006B01C40ED51ECC15DD0569F06991D701A9
:10083000ED91FC910190F081E02DC7010995F3CF76
:10084000642F0E946E03C801DF91CF911F910F9119
:10085000FF90EF90DF90CF900895CF93DF931F929A
:10086000CDB7DEB769832091E9022223F9F0209108
:100870000C03203258F021E030E0FC013383228366
:1008800090E080E00F90DF91CF9108958091EA028F
:10089000E82FF0E0E551FD4F998190838F5F8093C1
:1008A000EA0280930C0381E090E0ECCF61E0CE019E
:1008B00001960E946E03F7CFCF92DF92EF92FF92E4
:1008C0000F931F93CF93DF93FC01C48121E020930A
:1008D000E902C0930B031092EA0210920C03838585
:1008E000682B84ED93E00E942D04D0910C03D1324B
:1008F00008F092C00E94EB016B017C018091E30241
:10090000811165C082E08093E30281E08093E2027E
:100910008FEF8093E1021092E002D093DF02ABEE02
:10092000B2E0EFEBF2E080E0D81385C01092BE0297
:100930008091BE02CC0FC82BC093BE028091BD0235
:10094000813009F07CC01092BD020E94EB016B0166
:100950007C018091BE028093BB008091E502909162
:10096000E602A091E702B091E802892B8A2B8B2B3B
:1009700099F00E94EB010091E5021091E6022091AE
:10098000E7023091E8026C197D098E099F0906176C
:10099000170728073907E0F18091BC0083FDD9CF04
:1009A00085EC8093BC000E94EB016B017C0180917F
:1009B000E302823009F445C08091E1028F3F61F18A
:1009C0008091E102803241F18091E10225C0809165
:1009D000E5029091E602A091E702B091E802892B2E
:1009E0008A2B8B2B09F48ACF0E94EB010091E50240
:1009F0001091E6022091E7023091E8026C197D091E
:100A00008E099F09061717072807390708F076CFC0
:100A10008091E4020E94B3031092EA0210920C0348
:100A20001092E902DF91CF911F910F91FF90EF900B
:100A3000DF90CF9008959D9191938F5F75CF85EE54
:100A4000B0CF8091E5029091E602A091E702B091CB
:100A5000E802892B8A2B8B2B09F4A9CF0E94EB018A
:100A60000091E5021091E6022091E7023091E80240
:100A70006C197D098E099F09061717072807390782
:100A800008F095CFC5CF90E080E008950F931F93B5
:100A9000CF938C01C62F0E945C046C2F6460C80148
:100AA0000E945C046C2F6B7FC8010E945C0483EC85
:100AB00090E00197F1F7CF911F910F9108950F9357
:100AC0001F93CF93DF938C01D62FC42F607F642BAD
:100AD0000E94460580E1D89FB00111246C2BC8010B
:100AE000DF91CF911F910F910C944605CF93DF9327
:100AF000CDB7DEB728970FB6F894DEBF0FBECDBFD7
:100B000098E0E7E0F1E0DE01119601900D929A95F0
:100B1000E1F79091E803981708F48FEF90E0880FC1
:100B2000991F21E030E02C0F3D1F820F931FFC0125
:100B30006081606840E080EE93E028960FB6F894FC
:100B4000DEBF0FBECDBFDF91CF910C945F0541E0BA
:100B50000E945F0581E090E00895FB010190002074
:100B6000E9F73197AF01461B570BDC01ED91FC9182
:100B70000280F381E02D09948F929F92AF92BF92F1
:100B8000EF92FF920F931F93CF93DF93CDB7DEB712
:100B9000A1970FB6F894DEBF0FBECDBF7C01FA015E
:100BA000CB0119A2223008F42AE08E010F5D1F4FFD
:100BB000822E912CB12CA12CBF01A50194010E9481
:100BC000E418F901CA016A300CF5605DD8016E9332
:100BD0008D01232B242B252B79F790E080E01097B3
:100BE00021F0BD01C7010E94AD05A1960FB6F89492
:100BF000DEBF0FBECDBFDF91CF911F910F91FF9050
:100C0000EF90BF90AF909F908F900895695CDECF7A
:100C1000CF92DF92EF92FF920F931F93CF93DF93C8
:100C20006B01770FEE08FF08F7FE1FC0EC01E881AB
:100C3000F9810190F081E02D6DE209958C01442746
:100C40005527BA014C195D096E097F092AE0CE01CA
:100C50000E94BC05800F911FDF91CF911F910F91D2
:100C6000FF90EF90DF90CF9008952AE0B701A601A2
:100C7000DF91CF911F910F91FF90EF90DF90CF9078
:100C80000C94BC05BC0180EE93E00C94AD05CF93B1
:100C9000DF930E943203EC016FE371E087E393E09E
:100CA0000E94AD058C0F9D1FDF91CF91089585EDBA
:100CB0008093BC008091E5029091E602A091E7024A
:100CC000B091E8020796A11DB11D23E0B695A79546
:100CD000979587952A95D1F72091BC0024FD03C0F4
:100CE0001092E30208954091E5025091E60260916E
:100CF000E7027091E802452B462B472B69F30097DA
:100D0000A105B10541F02AE22A95F1F700C001974B
:100D1000A109B109E1CF8091E4020C94B303CF9310
:100D2000DF93CDB7DEB729970FB6F894DEBF0FBEBD
:100D3000CDBF8AE0C82EDD24D3942FEF2B838FEF15
:100D40008A8391E099832224239444244A9493E053
:100D5000592E612C712CC39429E02C1508F0C2C0C7
:100D60008EE00E94D901998788878FE00E94D9017F
:100D70008C0180E10E94D9017C0122E330E0D8019E
:100D80000E942F19A30192010E94C51849013D83B9
:100D90002C8324E630E0D7010E942F19A301920191
:100DA0000E94C51869013F832E83332433948885BC
:100DB0009985803991400CF0312C01E08C819D8126
:100DC0004F970CF400E011E08E819F8188970CF022
:100DD00010E0888599859093F0018093EF019092BF
:100DE000EE018092ED01D092EC01C092EB013092C5
:100DF000EA010093E9011093E801632D88E00E9465
:100E00007A01602F89E00E947A01612F8AE00E94B6
:100E10007A018091E70181110CC0632D82E00E946C
:100E20007A01602F84E00E947A01612F83E00E94A2
:100E30007A0187E791E00E94470680E791E00E94EF
:100E400032038091E70181114BC180E591E00E945E
:100E500047068CE591E00E9432036885798587E337
:100E600093E00E94080688859985803991400CF4AA
:100E70003AC184E291E00E94470682E491E00E9438
:100E80003203B40187E393E00E9408068C819D81C0
:100E90004F970CF02BC187EF90E00E94470689E145
:100EA00091E00E943203B60187E393E00E940806B6
:100EB0008E819F8188970CF41CC181ED90E00E9487
:100EC00047068091E701811117C185E990E00E94F2
:100ED00047066FE371E087E393E00E94AD05C12C04
:100EE000DD24D3948BE00E945101BB24B39400977E
:100EF00009F4B12C222029F1892B19F58091E70101
:100F000091E089278093E70160E082E00E947A0106
:100F100060E083E00E947A0160E084E00E947A0150
:100F200083E890E00E9432038091E7018111E7C0DD
:100F300087E790E00E9447068FE090E00E943A1118
:100F4000D22C8CE00E945101AA24A394009709F4AA
:100F5000A12C2981222321F1892B11F58091E60111
:100F600090E0019665E070E00E9415198093E6011B
:100F700088E690E00E9432034091E60150E070E084
:100F800060E02AE087E393E00E94BC056FE371E034
:100F900087E393E00E94AD058FE090E00E943A1154
:100FA0006091E7018DE00E947A018091E70188233A
:100FB00021F185E00E9451017C0186E00E945101EF
:100FC0008C0187E00E9451019D838C8361E0EF28B2
:100FD00009F060E082E00E947A0161E0012B09F0F3
:100FE00060E083E00E947A0161E08C819D81892B21
:100FF00009F060E084E00E947A018091E6019A8124
:10100000891729F02091E6012A83DD24D39482E018
:101010000E94510121E02C83892B09F41C8283E07A
:101020000E945101892B09F06DC0198299812C8190
:10103000922B998384E00E945101892B09F065C0AD
:1010400080E09981982B99832B81291303C0DD209F
:1010500009F477C040E061E080EE93E00E945F0514
:101060008BE39FE10197F1F78091E601813009F46C
:1010700075C008F44CC0823009F496C0833009F47E
:10108000B0C080E00E94760589EA91E00E944206A5
:1010900082E00E945101892B09F0BBC083E691E0F8
:1010A0000E9442068FEA91E00E94420684E00E947C
:1010B0005101892B09F0B0C083E691E00E944206FD
:1010C00081E00E94760585EB91E00E94420683E074
:1010D0000E945101892B09F0A2C083E691E02FC044
:1010E00085E591E0B4CE8CE291E0C5CE81E091E05F
:1010F000D4CE8BED90E0E3CE83EB90E0E8CE8CE7AE
:1011000090E018CF82E0898391CF84E09ACF80E08D
:101110000E9476058AE691E00E94420681E00E94E4
:1011200076056091EF017091F00180EE93E00E94EE
:1011300008068091EA0181110EC087E491E00E94C7
:10114000420686E090E00E943A11D12C89818B837F
:10115000A9822B2C00CE82E491E0F1CF80E00E94A6
:10116000760588E791E00E94420681E00E947605BC
:101170006091ED017091EE0180EE93E00E9408060F
:1011800041E06FED80EE93E00E945F0584E891E01E
:101190000E9442068091E901811103C088E491E038
:1011A000CECF8BE491E0CBCF80E00E94760587E83C
:1011B00091E00E94420681E00E9476056091EB0179
:1011C0007091EC0180EE93E00E94080680E991E0C6
:1011D0000E9442068091E801882301F38FE491E0A8
:1011E000AECF80E00E94760583E991E00E9442063E
:1011F0008091E70181110AC08AE591E00E944206D0
:1012000081E00E9476058AE991E099CF83E591E03B
:10121000F5CF8FE591E044CF8FE591E04FCF87E6A2
:1012200091E08DCF0F931F93CF93DF93E09147030E
:10123000F091480382E08083E0914303F0914403FE
:101240001082E0914503F09146038FEC8083109269
:101250004F03E0914B03F0914C0386E08083E091D3
:101260004903F0914A03808180618083E0914903C2
:10127000F0914A03808188608083E0914903F09176
:101280004A03808180688083E0914903F0914A039A
:1012900080818F7D808361E082E00E94A80161E00F
:1012A00083E00E94A80161E084E00E94A80161E05F
:1012B00088E00E94A80161E089E00E94A80161E045
:1012C0008AE00E94A80161E08DE00E94A80162E02E
:1012D00085E00E94A80162E086E00E94A80162E029
:1012E00087E00E94A80162E08BE00E94A80162E012
:1012F0008CE00E94A80160E082E00E947A0160E038
:1013000083E00E947A0160E084E00E947A0160E05C
:1013100088E00E947A0160E089E00E947A0160E042
:101320008AE00E947A0160E08DE00E947A011092CA
:101330007402109273021092EA0210920C030E943F
:10134000950384ED93E0909397028093960285ED48
:1013500093E090939B0280939A020E9495031092CF
:10136000E5038091EA03823018F098E09093E5035A
:101370008093E80362E370E080E090E00E94100256
:101380006091EB0380EE93E00E945C0468EE73E0F2
:1013900080E090E00E94100260E380EE93E00E9403
:1013A0004605CBE4D6E4CE010197F1F760E380EE89
:1013B00093E00E9446052197F1F760E380EE93E009
:1013C0000E94460583E592E00197F1F760E280EE26
:1013D00093E00E9446056091E503606240E080EE84
:1013E00093E00E945F0584E08093E60340E06CE0B8
:1013F00080EE93E00E945F0540E061E080EE93E0C4
:101400000E945F05CBE3DFE1CE010197F1F782E0B7
:101410008093E70340E066E080EE93E00E945F0582
:1014200040E062E080EE93E00E945F052197F1F7D3
:1014300088E08093EB0360E080EE93E00E945C0420
:1014400080E00E9476058AE991E00E94420681E0F0
:101450000E9476058CEB91E00E94420610E000E0CD
:1014600021E040EF50E06CEC71E08FE896E00E94E4
:101470009115009731F0DF91CF911F910F910C944E
:101480004C11DF91CF911F910F9108951F920F92F0
:101490000FB60F9211242F933F938F939F93AF9387
:1014A000BF9380912F0390913003A0913103B091AD
:1014B000320330912E0323E0230F2D3758F5019688
:1014C000A11DB11D20932E0380932F039093300311
:1014D000A0933103B093320380913303909134038E
:1014E000A0913503B09136030196A11DB11D8093E3
:1014F000330390933403A0933503B0933603BF9125
:10150000AF919F918F913F912F910F900FBE0F90B0
:101510001F90189526E8230F0296A11DB11DD2CF6A
:101520001F920F920FB60F9211242F933F934F9358
:101530005F936F937F938F939F93AF93BF93EF933B
:10154000FF9387E393E00E94C302FF91EF91BF9165
:10155000AF919F918F917F916F915F914F913F914B
:101560002F910F900FBE0F901F9018951F920F9202
:101570000FB60F9211242F938F939F93EF93FF93A6
:10158000E0914703F09148038081E0914D03F09191
:101590004E0382FD1BC09081809150038F5F8F733B
:1015A00020915103821741F0E0915003F0E0E95C93
:1015B000FC4F958F80935003FF91EF919F918F91F6
:1015C0002F910F900FBE0F901F9018958081F4CF30
:1015D0001F920F920FB60F9211242F933F934F93A8
:1015E0005F936F937F938F939F93AF93BF93EF938B
:1015F000FF938091B900887F803609F44AC0F0F5E6
:10160000883209F4A7C018F5803109F49BC0B8F4FA
:10161000882309F4F9C0883009F494C0FF91EF9150
:10162000BF91AF919F918F917F916F915F914F91FA
:101630003F912F910F900FBE0F901F9018958831FA
:1016400009F488C0803251F78093E10214C08034DD
:1016500009F49DC040F48033B9F38833F9F68093E0
:10166000E10285ECB0C0803509F485C0883509F405
:1016700096C0883499F60E945706D0CF883909F46D
:101680008CC038F5883729F050F4883611F080374F
:1016900029F683E08093E3021092BC0257C0883899
:1016A00009F47BC0803919F0803809F0B7CF8091F8
:1016B000BC02803208F071C0E091BC0281E08E0F64
:1016C0008093BC028091BB00F0E0E456FD4F808324
:1016D0003DC0803B39F0E0F4803A09F479C0883AA3
:1016E00009F09CCF84E08093E3021092990210925B
:1016F0009802E0919602F0919702099580919802E4
:1017000081110FC081E0809398021092760209C087
:10171000803C09F4A6CF883C09F4A3CF883B09F0AC
:101720007DCFE091990281E08E0F80939902F0E0E5
:10173000EA58FD4F80818093BB009091990280917F
:10174000980229C08091BE028093BB0085EC8093F3
:10175000BC0064CF9091E0028091DF02981758F5A9
:10176000E091E00281E08E0F8093E002F0E0E1542E
:10177000FD4F8081E9CFE091E00281E08E0F809300
:10178000E0028091BB00F0E0E154FD4F8083909136
:10179000E0028091DF029817C8F285E8D8CFE09187
:1017A000E00281E08E0F8093E0028091BB00F0E0C8
:1017B000E154FD4F80838091E20281115CCF81E092
:1017C0008093BD0284EA8093BC001092E30226CF8E
:1017D00085EC8093BC001092E3028091BC028032C1
:1017E00030F4E091BC02F0E0E456FD4F10826091CD
:1017F000BC0270E0E0919A02F0919B028CE992E0C9
:1018000009951092BC020ACF1092E10234CFE09108
:101810004C02F0914D028081811107C08FEF9FEF44
:1018200090932D0380932C030895E0914C02F09146
:101830004D020580F681E02D80819181F1CFCF931B
:10184000DF93DC011596ED91FC910680F781E02D88
:10185000A489B5898685978520893189EC013D83E6
:101860002C83C089D1899B838A83CF010C961196E2
:101870002D913C9112972817390721F41296DC9389
:10188000CE931197158A148A2C9121502C93209174
:101890001102211157C0A285B385848195812681CB
:1018A0003781EC013D832C83C681D7819B838A835A
:1018B000CF01029611962D913C9112972817390766
:1018C00021F41296DC93CE931197138612862C91F5
:1018D00021502C93C689209110022C1710F4C0932C
:1018E000100229E02C9FE0011124C35EDD4F098026
:1018F000DA81C02DD583C4834C815D8157834683B3
:10190000AC81BD8113969C938E9312979D838C839B
:10191000A689A29FD0011124A35EBD4FB387A287E1
:101920008C918F5F8C93A0915002B0915102968957
:1019300056968C91891730F581E080930602DF91ED
:10194000CF910895A0910802B0910902B787A687A8
:1019500014962D913C911597318B208B1496CD9137
:10196000DC9115979B838A8315969C938E9314978D
:1019700087E092E0958B848B809107028F5F809344
:101980000702D1CF80E0DBCF0FB6F8940F928091A1
:10199000290390912A030F900FBE089580911102A0
:1019A0008F5F8093110208950FB6F8940F92FC0197
:1019B000928D0F900FBE81E0911180E00895EF921B
:1019C000FF920F931F93CF93DF93EC010FB6F89420
:1019D0000F921E8D7C0181E1E80EF11C01E01116D1
:1019E000D4F08FEF8E8F0F900FBE0FB6F8940F923A
:1019F0001D8D7E0188E0E80EF11C01E01116B4F0A7
:101A00008FEF8D8F0F900FBEDF91CF911F910F91B0
:101A1000FF90EF9008958989882319F3C7010E94E8
:101A20001F0C8111009306021150D9CF888588239D
:101A300039F3C7010E941F0C811100930602115057
:101A4000DDCFCF93DF93FC01A085B18582819381A7
:101A500024813581EC013D832C83C481D5819B8316
:101A60008A8311968D919C9112978E179F0721F46E
:101A70001296DC93CE931197118610868C9181502B
:101A80008C93DF91CF9108950F931F93CF93DF93A2
:101A90008C01FB0180819181D80113968F3F9807BB
:101AA000F1F4E801AF81B88512968D919C9113975E
:101AB00093838283EC01FD83EC83B583A483139627
:101AC000FC93EE93129711870087F80180818F5F56
:101AD0008083DF91CF911F910F910895D9011296C4
:101AE0002D913C911397E9014881598184179507FD
:101AF000A8F7DACFFC01738362839187808746174A
:101B0000570790F0421B530B84859585481759075A
:101B1000C8F4BF016E5F7F4F80910F039091100357
:101B20000E94440D80E008954217530718F462178D
:101B3000730740F4BF016E5F7F4F80911103909156
:101B40001203EECF81E00895EF92FF920F931F935F
:101B5000CF93DF93EC018B017A016C857D85600F5B
:101B6000711F9801A701CE010E947A0D811107C053
:101B7000DF91CF911F910F91FF90EF9008958C8589
:101B80009D85080F191FE889F989CE010995E5CFD0
:101B9000EF92FF920F931F93CF93DF938C017B0102
:101BA000E0911103F09112030580F681E02DC681CA
:101BB000D781CE0102960E94210D8A8982FF0FC033
:101BC000A701B801CE010E94A40DE889F989CE01D0
:101BD000DF91CF911F910F91FF90EF9009948E7F2D
:101BE0008A8BF3CFE0911103F09112038081811170
:101BF0000DC080910F039091100390931203809376
:101C00001103F0931003E0930F0308950580F6810C
:101C1000E02D6FEF7FEF808191810E94C80DE2CFB0
:101C2000BF92CF92DF92EF92FF920F931F93CF93C9
:101C3000DF93EC01B62EC0902903D0902A030091C7
:101C40004C0210914D02E0904A02F0904B028091BC
:101C500050029091510202960E94210DCF3FDC0765
:101C600009F042C0BB2009F43FC0E0914202F0916C
:101C70004302A0915002B09151021596FC93EE934D
:101C80001497A0915002B0915102848195811796CA
:101C90009C938E9316978091500290915102A4814B
:101CA000B581029613969C938E9312978091500261
:101CB00090915102029695838483E0915002F091B5
:101CC000510281E492E093878287809141028F5F85
:101CD00080934102DF91CF911F910F91FF90EF9080
:101CE000DF90CF90BF900895CC0DDD1DE0915002A4
:101CF000F0915102D383C2836091500270915102DE
:101D00006E5F7F4FCC15DD0560F4C701DF91CF9189
:101D10001F910F91FF90EF90DF90CF90BF900C94A8
:101D2000440DC8010E94440D80912C0390912D0315
:101D3000C817D90778F6D0932D03C0932C03CACFC8
:101D4000FC010396928381832FEF3FEF348323833B
:101D50009683858390878783108208950F920FB6AC
:101D6000F8940F921F9211242F923F924F925F92FC
:101D70006F927F928F929F92AF92BF92CF92DF929B
:101D8000EF92FF920F931F932F933F934F935F9385
:101D90006F937F938F939F93AF93BF93CF93DF9373
:101DA000EF93FF93A0915002B09151020DB60D92A6
:101DB0000EB60D9280911102882321F081E080936C
:101DC000060261C010920602A0915002B091510229
:101DD000E0915002F09151022D913C918789908DB4
:101DE00082179307A8F08091500290915102809140
:101DF000500290915102259A2D9A2FEF87EA91E691
:101E0000215080409040E1F700C000001D9AF5CFBE
:101E10002091100289E001C02150422F50E0849FA0
:101E2000F001859FF00D1124E35EFD4F9081992311
:101E300099F3A181B28112966D917C917283618335
:101E4000289FC0011124805E9D4F6817790721F4F7
:101E5000858196819283818389E0849FF001859FAB
:101E6000F00D1124E35EFD4F0180F281E02D8681AB
:101E70009781909351028093500220931002809199
:101E8000500290915102A0915002B0915102CD9117
:101E9000CDBFDD91DEBFFF91EF91DF91CF91BF917B
:101EA000AF919F918F917F916F915F914F913F91F2
:101EB0002F911F910F91FF90EF90DF90CF90BF90E7
:101EC000AF909F908F907F906F905F904F903F90DA
:101ED0002F901F900F900FBE0F9008958F929F929A
:101EE000BF92CF92DF92EF92FF920F931F93CF9307
:101EF000DF930FB6F8940F92809111028150809376
:101F0000110280911102882379F080E00F900FBEBA
:101F1000DF91CF911F910F91FF90EF90DF90CF90C5
:101F2000BF909F908F90089580911302882369F34A
:101F3000E0900C02F0900D02F0E0E0E039E041E0CA
:101F40008091070281115EC0EF2B11F00E94070CF7
:101F5000E0900402F0900502E114F10409F47DC15F
:101F600089E0D82ECC24C3940FEF1FEF809111028B
:101F7000811161C1C0912903D0912A034E018FEFD5
:101F8000881A980A90922A03809229038114910456
:101F9000B9F480914C0290914D0220914A02309107
:101FA0004B0230934D0220934C0290934B0280934E
:101FB0004A02809152028F5F809352020E94070C66
:101FC00080912C0390912D03B12C8816990608F06E
:101FD00026C1E0915002F0915102E689DE9EF001A7
:101FE0001124E35EFD4F8081823010F0BB24B39456
:101FF00080910602811103C0BB2009F425C1C09263
:10200000060222C1D7011696ED91FC91A489B589EB
:102010006685778580899189EB019D838C83808992
:102020009189EC017B836A83BF01645F7F4F1196C6
:102030000D911C9112970617170721F412969C9385
:102040008E931197158A148A8C9181508C93A28556
:10205000B3858481958166817781EC017D836C8372
:1020600066817781EB019B838A83CF01029611966B
:102070000D911C9112970817190721F412967C9361
:102080006E931197138612862C9121502C93A6895A
:10209000209110022A1710F4A09310023A9FD00149
:1020A0001124A35EBD4F11960D90BC91A02DB58358
:1020B000A48314966D917C9115977783668314960B
:1020C0006D917C911597EB019B838A8315969C9368
:1020D0008E9314979689939FD0011124A35EBD4FD0
:1020E000B387A2878C918F5F8C93A0915002B0919F
:1020F000510256968C91891708F022CF4093060220
:102100001FCFE0914C02F0914D020580F681E02D49
:102110000680F781E02D828193818816990628F444
:1021200090932D0380932C0354CFC285D385848153
:10213000958126813781DC0115963C932E93149767
:1021400026813781D90113969C938E931297CF01E4
:10215000029649815A814817590711F43A83298315
:1021600013861286288121502883A489B589109767
:10217000F9F02685378540895189E9015D834C83D3
:1021800040895189EA013B832A8311966D917C91A4
:1021900012979F01245F3F4F6217730721F4129635
:1021A0005C934E931197158A148A2C9121502C938D
:1021B000A689209110022A1710F4A0931002DA9E2B
:1021C000D0011124A35EBD4F11960D90BC91A02D9E
:1021D000B583A48314962D913C911597378326835C
:1021E00014962D913C911597E9019B838A8315964E
:1021F0009C938E93149796899D9DD0011124A35E84
:10220000BD4FB387A2878C918F5F8C93E091500272
:10221000F09151028689891710F4BB24B394E091A0
:102220004C02F0914D02808181116BCF10932D03F0
:1022300000932C03CECE809104029091050201966A
:102240009093050280930402D1E0ED1AF10809F0A1
:102250008DCE10920502109204028091060288230E
:1022600009F453CE80915002909151020E94AE0E1B
:1022700081E04CCECF93DF93EC010E94CE0C60E066
:10228000CE010E94100E0E946E0F811102C00E94AA
:10229000AE0EDF91CF910895CF93DF93EC010FB68F
:1022A000F8940F92809113028F5F809313028091B4
:1022B000500290915102892B09F080C0D0935102B5
:1022C000C093500280911302813081F58DE192E03C
:1022D0000E94A00E86E292E00E94A00E8FE292E0A1
:1022E0000E94A00E88E392E00E94A00E8AEF91E087
:1022F0000E94A00E81EF91E00E94A00E87E092E084
:102300000E94A00E84E192E00E94A00E81E492E07F
:102310000E94A00E8AEF91E090934D0280934C02B0
:1023200081EF91E090934B0280934A0280910302E7
:102330008F5F80930302AE89809110028A1710F498
:10234000A093100229E02A9FD0011124A35EBD4F63
:1023500011960D90BC91A02DBD83AC8314968D91E8
:102360009C9115979F838E831496ED91FC91159700
:10237000CE0102969383828315969C938E93149735
:10238000EE89E29FF0011124E35EFD4FFB87EA87AF
:1023900080818F5F80830F900FBE80912B038823F5
:1023A00051F0E0915002F091510296898E89981770
:1023B00010F40E94AE0EDF91CF91089580912B030F
:1023C0008111B4CFE0915002F091510296898E892B
:1023D000891708F4ABCFD0935102C0935002A6CF17
:1023E0000F920FB6F8940F921F9211242F923F92E2
:1023F0004F925F926F927F928F929F92AF92BF9215
:10240000CF92DF92EF92FF920F931F932F933F9300
:102410004F935F936F937F938F939F93AF93BF93EC
:10242000CF93DF93EF93FF93A0915002B0915102AD
:102430000DB60D920EB60D9213BE80911102811150
:10244000F9C08091290390912A03019690932A0361
:1024500080932903009781F520914C0230914D0221
:1024600040914A0250914B0250934D0240934C02CE
:1024700030934B0220934A02209152022F5F209307
:102480005202E0914C02F0914D022081211107C0CF
:102490002FEF3FEF30932D0320932C030DC0E091DD
:1024A0004C02F0914D020580F681E02D20813181B2
:1024B00030932D0320932C0320912C0330912D0376
:1024C0008217930710F420E0A1C020E039E0D32E5A
:1024D000E0914C02F0914D023081311107C08FEF35
:1024E0009FEF90932D0380932C0390C0E0914C02BA
:1024F000F0914D020580F681E02D0680F781E02DF8
:10250000428153818417950728F450932D034093FB
:102510002C037CC0A285B385448155816681778177
:10252000EA017D836C8366817781EB015B834A835B
:10253000AF014E5F5F4F11960D911C9112970417DA
:10254000150721F412967C936E93119713861286C9
:102550003C9131503C93A489B5891097F9F0668578
:10256000778500891189EB011D830C83008911890E
:10257000E8017B836A831196ED90FC901297BF016E
:10258000645F7F4FE616F70621F412961C930E93B4
:102590001197158A148A3C9131503C93A689309149
:1025A00010023A1710F4A0931002DA9ED001112401
:1025B000A35EBD4F11960D90BC91A02DB583A48351
:1025C00014966D917C9115977783668314966D911F
:1025D0007C911597EB015B834A8315965C934E9330
:1025E000149746894D9DD0011124A35EBD4FB3873A
:1025F000A2873C913F5F3C93E0915002F0915102E1
:102600003689341708F064CF21E062CFE0915002A0
:10261000F0915102E689D9E0ED9FF0011124E35ECB
:10262000FD4F8081823008F021E080910602811107
:102630000EC00AC080910402909105020196909309
:102640000502809304026CC0222309F469C08091C2
:102650001102882321F081E08093060261C010926C
:102660000602A0915002B0915102E0915002F09107
:1026700051022D913C918789908D82179307A8F084
:10268000809150029091510280915002909151029C
:10269000259A2D9A2FEF87EA91E6215080409040AD
:1026A000E1F700C000001D9AF5CF2091100289E0EB
:1026B00001C02150422F50E0849FF001859FF00D12
:1026C0001124E35EFD4F9081992399F3A181B2819A
:1026D00012966D917C9172836183289FC0011124B1
:1026E000805E9D4F6817790721F4858196819283DA
:1026F000818389E0849FF001859FF00D1124E35EC2
:10270000FD4F0180F281E02D8681978190935102E7
:1027100080935002209310028091500290915102B8
:10272000A0915002B0915102CD91CDBFDD91DEBF9D
:10273000FF91EF91DF91CF91BF91AF919F918F91D9
:102740007F916F915F914F913F912F911F910F91C9
:10275000FF90EF90DF90CF90BF90AF909F908F90C1
:102760007F906F905F904F903F902F901F900F90B1
:102770000FBE0F900895CF93DF93009751F0EC01B7
:102780000E94CE0CCE010E943C18DF91CF910C9498
:102790006E0FDF91CF910895CF93DF9300D000D0DB
:1027A0001F92CDB7DEB785E0B82ECE0101967C0131
:1027B000E0911103F09112031081D12CC12C11234F
:1027C00029F00580F681E02DC080D1800E94CE0CDA
:1027D0000E94C40C4C0180914E0290914F028816C9
:1027E000990608F089C00E94F20D90924F028092E3
:1027F0004E020E946E0FD701EB2D1D92EA95E9F76C
:1028000000912703109128030FB6F8940F92D80176
:102810005A96DC905A97DD2009F42FC15C964C91B2
:102820005C974423F9F050E016968D919C91179790
:10283000840F951F17969C938E93169714962D913F
:102840003C9115978217930738F08D919C911197C1
:1028500017969C938E931697F80166817781C7012E
:102860000E944A19DA94D8015A96DC925A9718961F
:102870008C91882339F0C80108960E941F0C8111A1
:102880000E94AE0E0F900FBEA980A7FCB9CF0C819D
:102890001D81D8011A968D919C91892B21F0C80138
:1028A00002960E94210D0E94C40C6C0180914E0280
:1028B00090914F02C816D90610F40E94F20DD092E2
:1028C0004F02C0924E02EFEFEA0DE93008F098CFC8
:1028D0000E2E000CFF0BED58FB4ED80152968C913A
:1028E00052970C942919F614F6143915211533153D
:1028F000F614F6143915211590924F0280924E026B
:10290000112351F08C149D0470F00E946E0FB401DD
:10291000C6010E94C80D6FCFE0910F03F091100324
:1029200061E08081811160E000912703109128030C
:102930000FB6F8940F92D8015D968C915D978F3FFA
:1029400011F45D961C92F801868D8F3F09F4168E66
:102950000F900FBED8015A968C915A9781113CC0A6
:102960005296ED91FC91A0915002B09151021F96A8
:10297000FC93EE931E97A0915002B0915102848176
:10298000958151969C938E9350978091500290918F
:102990005102A481B5810C9613969C938E93129745
:1029A00080915002909151020C9695838483E0911E
:1029B0005002F0915102C8014196958B848BF80129
:1029C00081898F5F818BC60188199909662311F06F
:1029D0008FEF9FEF0E94100EC8010E94DF0C0E9433
:1029E0006E0F811108CF0E94AE0E05CF8160F801F5
:1029F000828B8A809B8064857585680D791D940122
:102A0000A601C8010E947A0D882309F4F9CED801E5
:102A100052968C91529782FF10C01C966D917C91BA
:102A2000680D791DA601C8010E94A40DD801509619
:102A3000ED91FC91C8010995E3CE8E7FF801828B60
:102A4000F5CF816052968C9352976A817B811D9657
:102A50007C936E931C976C0D7D1D9601A601C80199
:102A60000E947A0DCDCE81FD04C0C8010E94BB1327
:102A7000C7CE8E7FF801828BC3CE0F900FBE98CE4B
:102A800000E010E08091120281110CC080911D02C3
:102A9000823010F00E94AE0E0115110599F30E94CC
:102AA000B602F0CF0FB6F8940F92E0911902F091B0
:102AB0001A02C681D781CE0102960E94210D809113
:102AC00013028150809313028091120281508093EF
:102AD00012020F900FBE8F89988D0E94BB13CE01FA
:102AE0000E94BB13CFCFCF93DF93EC010E94CE0C9B
:102AF000CE010E94A017EC010E946E0F209769F48E
:102B0000259A2D9A2FEF80E792E021508040904047
:102B1000E1F700C000001D9AF5CFCE01DF91CF9103
:102B200008957F928F929F92AF92BF92CF92DF9241
:102B3000EF92FF920F931F93CF93DF93982EA92EBE
:102B4000762E872E7A01B22ECA010E9473156C016F
:102B5000D0E0C0E0892B09F460C080E390E00E94DF
:102B60007315EC01892B09F455C080E3DE011D9239
:102B70008A95E9F7D88ECF8AA70165EA70E0C60189
:102B80000E945319B1E0EB1AF108EF89F88DEE0DB0
:102B9000FF1D672D782DCE0149969B01205F3F4F89
:102BA000DB014D91BD01DC014D93CD01AB014150E5
:102BB0005109DA014C91442319F02617370781F7A0
:102BC00018A6BE8AB9A61B861A861D8A1C8AD987B2
:102BD000C88784E090E08B1991099D878C87DB8BF7
:102BE000CA8B9082DF011197AC9211971C921197BA
:102BF00080E88C9311971C9257971C9211971C9206
:102C0000B397F983E8830115110539F0F801D183F1
:102C1000C08303C0C6010E94BB13CE01DF91CF91D8
:102C20001F910F91FF90EF90DF90CF90BF90AF90EA
:102C30009F908F907F9008950E94F0111895E7E380
:102C4000F3E01382128288EE93E0A0E0B0E0848388
:102C50009583A683B78323E131E03183208325EC7C
:102C600030E03587248724EC30E03787268720EC56
:102C700030E0318B208B21EC30E0338B228B22EC47
:102C800030E0358B248B26EC30E0378B268B118E91
:102C9000128E138E148EE4EDF3E01382128284837D
:102CA0009583A683B78385E291E091838083E0EEEC
:102CB000F3E01382128287E391E09183808387E2BD
:102CC000848380E1818782E0828713860895CF9391
:102CD000DF93CDB7DEB760970FB6F894DEBF0FBEB7
:102CE000CDBF789484B5826084BD84B5816084BD95
:102CF00085B5826085BD85B5816085BD80916E009A
:102D0000816080936E0010928100809181008260CA
:102D10008093810080918100816080938100809107
:102D200080008160809380008091B10084608093F6
:102D3000B1008091B00081608093B00080917A00F2
:102D4000846080937A0080917A00826080937A0018
:102D500080917A00816080937A0080917A00806807
:102D600080937A001092C1002091050130910601F4
:102D70008FEF98E0821B930B9093020180930101E7
:102D80000E941209A6EDB1E0FE013196BF018D91BE
:102D90008193882321F081E0A63EB807C1F70DE0BA
:102DA00013E020E040EC50E080E495E10E949115B2
:102DB000009709F4B9C00E944C110FB6F8940F9215
:102DC0008091270390912803892B09F050C08CE152
:102DD00093E00E94A00E83E193E00E94A00E8CE19C
:102DE00093E0909312038093110383E193E0909317
:102DF000100380930F0381E590E00E9473158C010E
:102E0000009789F14F96F801918380838AE0838F40
:102E100085E0848F0FB6F8940F9280819181238D85
:102E2000448DBC01249F600D711D11247583648342
:102E3000128E938382832150330B429FB001439FB4
:102E4000700D1124860F971F978386838FEF858FD0
:102E5000868FC80108960E94A00EC80141960E9464
:102E6000A00E0F900FBE10932803009327030F901E
:102E70000FBE8091270390912803892B09F454C039
:102E800005E213E023E04CE550E06BED71E08CECE3
:102E900093E10E949115009709F446C00E944C11DD
:102EA000F8948FEF9FEF90932D0380932C0381E094
:102EB00080932B0310922A0310922903A89588E18E
:102EC00090EC0FB6F894A895809360000FBE909395
:102ED0006000A0915002B0915102CD91CDBFDD9123
:102EE000DEBFFF91EF91DF91CF91BF91AF919F91A5
:102EF0008F917F916F915F914F913F912F911F9192
:102F00000F91FF90EF90DF90CF90BF90AF909F9088
:102F10008F907F906F905F904F903F902F901F9079
:102F20000F900FBE0F900895809100010E9412092A
:102F300000E010E001151105E9F30E94B602FACF96
:102F40000F931F93CF93DF938230910510F482E0AB
:102F500090E0E091EE03F091EF0330E020E0B0E08C
:102F6000A0E0309799F42115310509F44AC0281BD7
:102F7000390B24303105D8F58A819B8161157105A3
:102F800089F1FB0193838283FE0111C0408151814D
:102F90000281138148175907E0F04817590799F43F
:102FA000109761F012960C93129713961C93329619
:102FB000CF01DF91CF911F910F9108950093EE0300
:102FC0001093EF03F4CF2115310551F04217530749
:102FD00038F0A901DB019A01BD01DF01F801C1CF81
:102FE000EF01F9CF9093EF038093EE03CDCFFE0175
:102FF000E20FF31F81939193225031093983288383
:10300000D7CF2091EC033091ED03232B41F4209195
:103010000301309104013093ED032093EC032091E0
:103020000101309102012115310541F42DB73EB760
:103030004091050150910601241B350BE091EC03F2
:10304000F091ED03E217F307A0F42E1B3F0B2817B6
:10305000390778F0AC014E5F5F4F2417350748F011
:103060004E0F5F1F5093ED034093EC0381939193B8
:103070009FCFF0E0E0E09CCFCF93DF930097E9F0A3
:10308000FC01329713821282A091EE03B091EF03FC
:10309000ED0130E020E01097A1F420813181820F12
:1030A000931F2091EC033091ED032817390709F0A5
:1030B00061C0F093ED03E093EC03DF91CF910895AD
:1030C000EA01CE17DF07E8F54A815B819E014115D1
:1030D0005105B1F7E901FB83EA8349915991C40F86
:1030E000D51FEC17FD0761F4808191810296840F52
:1030F000951FE90199838883828193819B838A83C9
:10310000F0E0E0E012968D919C9113970097B9F54D
:103110002D913C911197CD010296820F931F209122
:10312000EC033091ED032817390739F6309751F544
:103130001092EF031092EE03B093ED03A093EC0313
:10314000BCCFD383C28340815181840F951FC817A0
:10315000D90761F44E5F5F4F88819981480F591FED
:10316000518340838A819B8193838283211531051A
:1031700009F0B0CFF093EF03E093EE039ECFFD0193
:10318000DC01C0CF13821282D7CF052E97FB1EF42D
:1031900000940E94DC1857FD07D00E94E41807FC39
:1031A00003D04EF40C94DC18509540953095219541
:1031B0003F4F4F4F5F4F0895909580957095619563
:1031C0007F4F8F4F9F4F0895A1E21A2EAA1BBB1B62
:1031D000FD010DC0AA1FBB1FEE1FFF1FA217B307E3
:1031E000E407F50720F0A21BB30BE40BF50B661FF9
:1031F000771F881F991F1A9469F7609570958095BD
:1032000090959B01AC01BD01CF010895A29FB00133
:10321000B39FC001A39F700D811D1124911DB29F0A
:10322000700D811D1124911D089597FB072E16F432
:10323000009407D077FD09D00E94361907FC05D00D
:103240003EF4909581959F4F0895709561957F4FBD
:103250000895EE0FFF1F0590F491E02D09940E9450
:103260000619B7FF0895821B930B0895AA1BBB1B79
:1032700051E107C0AA1FBB1FA617B70710F0A61B76
:10328000B70B881F991F5A95A9F780959095BC0197
:10329000CD010895FB01DC0102C001900D92415067
:1032A0005040D8F70895DC0101C06D934150504063
:0832B000E0F70895F894FFCF48
:1032B800030000F0038000000040001400540000E8
:1032C800000000E50242026F024D03A0027E029256
:1032D80002000000002D0400044305D603F903E6AC
:1032E80003D70300000000A705420243056D030D44
:1032F8000A002044525900204F4B00484F54004CBC
:103308004F57004D414E55414C004155544F004FC9
:103318004E20004F4646004F4E00536F696C204DBB
:103328006F6973747572650054656D706572617448
:103338007572650043200048756D69646974790089
:103348002520004D6F64653A2000506C616E742032
:1033580043617265205379730050756D703A00208F
:1033680046616E3A004C696768743A00496E697440
:1033780069616C697A696E672E2E2E00506C616ED9
:1033880074436172650049444C4500546D72205382
:043398007663000058
:00000001FF
